:100000000C942A000C9445000C9445000C94450077
:100010000C9445000C9445000C9445000C9445004C
:100020000C9445000C9445000C9445000C9445003C
:100030000C9445000C9445000C9445000C9445002C
:100040000C9445000C9445000C9445000C9445001C
:100050000C94450011241FBECFE5D8E0DEBFCDBF14
:1000600010E0A0E6B0E0E2EBF0E002C005900D92F7
:10007000A036B107D9F710E0A0E6B0E001C01D92AC
:10008000A036B107E1F70C9447000C940000CFE5CF
:10009000D8E0DEBFCDBF8FEF87BB30E038BB20E0BC
:1000A00080E395E70197F1F72F5F2A30C9F73F5FAB
:0200B000F5CF8A
:00000001FF
