:1000000019C032C031C030C02FC02EC02DC02CC08E
:100010002BC02AC029C028C027C026C025C024C0A4
:1000200023C022C021C020C01FC01EC01DC01CC0D4
:100030001BC01AC011241FBECFEFD2E0DEBFCDBF60
:1000400011E0A0E0B1E0E2E9F1E002C005900D921C
:10005000A030B107D9F711E0A0E0B1E001C01D92D6
:10006000A030B107E1F701C0CBCF8FEF84B983E0B7
:100070008AB985B18F5F85B985D089B18695869516
:10008000869580FF06C080E090E077D080E290E027
:100090001BC089B18695869580FF06C080E090E000
:1000A0006CD080E490E010C089B182958F7080FFA1
:1000B00006C080E490E061D080E090E005C08FEF62
:1000C00090E05BD08FEF90E053D0289B03C085B1C8
:1000D000815002C085B18F5F85B920E030E080E3B8
:1000E00095E70197F1F72F5F3F4F2A303105B9F7B8
:1000F000C4CF81EA8093800089E0809381000895D5
:1001000082EA8093800089E080938100089583EAE9
:100110008093800089E08093810008959093890006
:1001200080938800089590938B0080938A000895AF
:1001300080938800892F9927817080938900089582
:1001400080938A00892F9927817080938B0008956E
:1001500080938800892F9927837080938900089560
:1001600080938800892F9927837080938B0008954E
:1001700090938B0080938A000895909389008093D8
:100180008800089581EA8093800089E0809381004F
:020190000895D0
:00000001FF
