:100000000C9438000C9455000C9455000C94550039
:100010000C9455000C9455000C9455000C9455000C
:100020000C9455000C9455000C9455000C945500FC
:100030000C9455000C9455000C9455000C945500EC
:100040000C9487220C9455000C9455000C94550088
:100050000C9455000C9455000C9455000C945500CC
:100060000C9455000C9455000C9455000C945500BC
:1000700011241FBECFEFD0E1DEBFCDBF13E0A0E063
:10008000B1E0EEECFDE502C005900D92A031B107A4
:10009000D9F715E0A0E1B3E001C01D92A035B1078A
:1000A000E1F70E94AB220C94E52E0C9400008FEF38
:1000B00080937E0086EC80937A0080917A0086FDA2
:1000C000FCCF0895806480937C0080917A008064E6
:1000D00080937A008BEE8A95F1F780917A0086FD05
:1000E000FCCF2091780030917900C9010895806497
:1000F00080937C0080917A00806480937A008BEEFC
:100100008A95F1F780917A0086FDFCCF8091780086
:100110009091790096958795969587950895EF9299
:10012000FF920F931F93CF93DF93EC017A018B0122
:100130008EEF9FEFAFEFBFEFE80EF91E0A1F1B1FF8
:100140008A8D9B8DAC8DBD8D0297A109B109E816F2
:10015000F9060A071B0728F020E030E040E050E0F5
:1001600012C02A8130E040E050E0C801B7010E948F
:100170006D2E9B01AC018EA19FA1A8A5B9A5280F4A
:10018000391F4A1F5B1FB901CA01DF91CF911F912F
:100190000F91FF90EF900895EF92FF920F931F93AE
:1001A000CF93DF93FC017B01EB0129968685978530
:1001B000A089B1890097A105B10509F471C06289D0
:1001C000738980E090E0FB01E80FF91FE081E032E5
:1001D00041F0E53009F4E5EEE993019688309105A8
:1001E00091F7DB0118968C91803211F48E0112C0C8
:1001F0008EE2FE0181938F01FB019E012C5F3F4F38
:100200008085803239F0D8018D938D013196A21707
:10021000B307B1F7FB018385D70118968C93278D1F
:1002200030E040E050E0522F442733272227868DCC
:1002300090E0A0E0B0E0DC0199278827282B392B3B
:100240004A2B5B2B848D90E0A0E0B0E0282B392B6B
:100250004A2B5B2B958D80E0A0E0B0E0282B392B5A
:100260004A2B5B2BF7012083318342835383DB01CD
:1002700059969C91599780E058962C91589730E068
:10028000822B932B9583848357969C91579780E07C
:1002900056962C9130E0822B932B97838683E8012E
:1002A0001882DF91CF911F910F91FF90EF900895E9
:1002B000DB01882311F08BE00895E0911003F091A9
:1002C0001103309709F01082109709F01C92B09337
:1002D0001103A093100380E008956F927F928F9294
:1002E0009F92AF92BF92CF92DF92EF92FF920F93C5
:1002F0001F93CF93DF93EC014A015B01CAA4DBA4F7
:10030000ECA4FDA4C416D506E606F70609F44EC013
:100310008C818823A1F19EE2692E712C6C0E7D1ECA
:100320008981B301A701960101E00E94C71F8823BC
:10033000D9F51C828E899F89A88DB98D2E8D3F8D10
:1003400048A159A1820F931FA41FB51FC816D90633
:10035000EA06FB06A0F41B8110C08E899F89A88D38
:10036000B98DC80ED91EEA1EFB1E8981B301A701F3
:10037000960101E00E94C71F1150123070F78114DE
:100380009104A104B10491F0BE01625D7F4F8981A7
:10039000A501940101E00E946E1F882329F48AA61A
:1003A0009BA6ACA6BDA603C081E001C080E0DF91A2
:1003B000CF911F910F91FF90EF90DF90CF90BF9062
:1003C000AF909F908F907F906F9008952F923F9263
:1003D0004F925F926F927F928F929F92AF92BF9255
:1003E000CF92DF92EF92FF920F931F93CF93DF9301
:1003F0003C016A017B014801590142305105610508
:10040000710508F4BAC0F301828D938DA48DB58D6A
:10041000481759076A077B0708F0AFC0268C378C4E
:1004200040A051A08081823009F464C0833009F477
:100430007AC0813011F022E09CC0EA01D695C795C0
:10044000C40FD51FAE01452F5527469560E070E0DB
:10045000420D531D641D751DC3010E946D01282F9F
:10046000882309F086C0DE01B1708601017010702A
:100470000115110551F0F301EA0FFB1F86A58F70DE
:10048000982D9295907F982B01C0982DA60DB71DA1
:100490009E969C93219681E0F3018483AE01452FC3
:1004A0005527469560E070E0420D531D641D751D93
:1004B000C3010E946D01282F882309F05AC0D17012
:1004C000012B49F084E0B694A794979487948A9579
:1004D000D1F7482D0BC0F301EC0FFD1F46A5407F5F
:1004E000BB27AB2D9A2D892D8F70482BC60DD71D9C
:1004F0004EA73FC0452F562F672F7727420D531D1C
:10050000641D751DC3010E946D01282F882389F584
:10051000F601EE0FFF1FF170E60DF71D86A6892D7F
:10052000992787A726C0E7E0769567955795479561
:10053000EA95D1F7420D531D641D751DC3010E943C
:100540006D01282F8823A9F4F601EE0FFF1FEE0F8F
:10055000FF1FF170E60DF71D86A6892D992787A745
:10056000C501AA27BB2780AB8B2D9927AA27BB27BC
:1005700081AB81E0F301848301C022E0822FDF910F
:10058000CF911F910F91FF90EF90DF90CF90BF9090
:10059000AF909F908F907F906F905F904F903F9023
:1005A0002F9008957F928F929F92AF92BF92CF9299
:1005B000DF92EF92FF920F931F93CF93DF934C0143
:1005C0007A018B01423051056105710508F4BBC009
:1005D000F401828D938DA48DB58D481759076A0754
:1005E0007B0708F0B0C0A68CB78CC0A0D1A08081DA
:1005F000823009F44DC0833009F468C0813009F0BD
:10060000A7C0EA01D695C795CE0DDF1DAE01452FD7
:100610005527469560E070E04A0D5B1D6C1D7D1D01
:10062000C4010E946D01882309F092C0FE01F1709F
:10063000E80DF91D76A42196AE01452F5527469564
:1006400060E070E04A0D5B1D6C1D7D1DC4010E94C1
:100650006D01882309F07CC0672D70E0D170C80D52
:10066000D91D9EA580E0682B792BC7018170907001
:10067000892B39F094E0769567959A95E1F79B017F
:1006800022C09B0140E050E03F704070507064C059
:10069000452F562F672F77274A0D5B1D6C1D7D1D3B
:1006A000C4010E946D01882309F052C0F701EE0FCA
:1006B000FF1FF170E80DF91D97A580E026A530E039
:1006C000822B932B9C0140E050E046C0B7E076952A
:1006D000679557954795BA95D1F74A0D5B1D6C1DE7
:1006E0007D1DC4010E946D01882391F5F701EE0F75
:1006F000FF1FEE0FFF1FF170E80DF91D81A990E0BB
:10070000A0E0B0E0582F44273327222780A990E0AB
:10071000A0E0B0E0DC0199278827282B392B4A2B51
:100720005B2B86A590E0A0E0B0E0282B392B4A2B6C
:100730005B2B97A580E0A0E0B0E0282B392B4A2B5B
:100740005B2B5F7009C021E030E040E050E004C066
:100750002FEF3FEF4FEF5FEFB901CA01DF91CF916C
:100760001F910F91FF90EF90DF90CF90BF90AF90CF
:100770009F908F907F900895AF92BF92CF92DF921B
:10078000EF92FF920F931F93CF93DF935C016B0166
:10079000DC0115967C936E93149716964D915D919E
:1007A0006D917C911997413051056105710509F4EE
:1007B000D3C0ED91FC91828D938DA48DB58D48179A
:1007C00059076A077B0708F0C7C041155105610545
:1007D000710581F58081833049F442A153A164A160
:1007E00075A1411551056105710521F5F5011286C7
:1007F0001386148615860190F081E02D8085918501
:10080000C816D90608F0A8C0C601A4E09695879539
:10081000AA95E1F7A0E0B0E022A133A144A155A13F
:10082000820F931FA41FB51FF50186879787A08BA2
:10083000B18B7AC08281082F10E0F4E0000F111F05
:10084000FA95E1F724C0CE010E94D202AB01BC01AF
:100850004F3FFFEF5F07FFEF6F07FFEF7F0711F4D9
:1008600081E07BC0423051056105710508F474C018
:10087000D501ED91FC91828D938DA48DB58D481796
:1008800059076A077B0708F067C0C01AD10AF5014B
:10089000C081D181C016D106B0F6D5011A964D930C
:1008A0005D936D937C931D97EEEFEE2EEFEFFE2E92
:1008B000EFEF0E2FEFEF1E2FE40EF51E061F171F92
:1008C0008A8D9B8DAC8DBD8D0297A109B109E8166B
:1008D000F9060A071B0728F020E030E040E050E06E
:1008E00012C02A8130E040E050E0C801B7010E9408
:1008F0006D2E9B01AC018EA19FA1A8A5B9A5280FC3
:10090000391F4A1F5B1FC60164E0969587956A955B
:10091000E1F7A0E0B0E0280F391F4A1F5B1FF50187
:1009200026873787408B518BFFE0CF22DD2455E0AF
:10093000CC0CDD1C5A95E1F78EE290E0C80ED91E72
:10094000D5018D919C9111978C0D9D1D53969C9373
:100950008E93529780E001C082E0DF91CF911F918A
:100960000F91FF90EF90DF90CF90BF90AF900895E0
:100970002F923F924F925F926F927F928F929F92AF
:10098000AF92BF92CF92DF92EF92FF920F931F939D
:10099000DF93CF9300D000D0CDB7DEB71C012A0182
:1009A0003B01DC015A968D919D910D90BC91A02D3B
:1009B00089839A83AB83BC83411551056105710519
:1009C00081F4F10182849384A484B5848114910418
:1009D000A104B10411F188169906AA06BB06E8F431
:1009E00021C0C1010E94D2029B01AC01623071059D
:1009F0008105910528F421E030E040E050E093C00B
:100A000089819A81AB81BC81281739074A075B0726
:100A100008F489C05301420105C011E0812E912CD8
:100A2000A12CB12C750164010894C11CD11CE11CDE
:100A3000F11C89819A81AB81BC81C816D906EA066E
:100A4000FB0660F092E089169104A104B10408F459
:100A500061C0B2E0CB2ED12CE12CF12CC101B70149
:100A6000A6010E94D2029B01AC01611571058105AE
:100A70009105A9F06F3FAFEF7A07AFEF8A07AFEFAD
:100A80009A0709F450C0613071058105910509F498
:100A90004AC0C814D904EA04FB0431F63BC0BC2C9C
:100AA000AD2C9E2C8F2CC101A601B7010FEF1FEFBB
:100AB0002FEF3FE00E94E601882389F5411451049D
:100AC0006104710449F0C101B301A20186019701DB
:100AD0000E94E601882319F5F101B286A386948667
:100AE000858686859785A089B1898F3FFFEF9F070F
:100AF000FFEFAF07FFEFBF0751F00197A109B10961
:100B0000F10186879787A08BB18B81E08583A70150
:100B1000960109C020E030E040E050E004C02FEF33
:100B20003FEF4FEF5FEFB901CA010F900F900F90A9
:100B30000F90CF91DF911F910F91FF90EF90DF9079
:100B4000CF90BF90AF909F908F907F906F905F906D
:100B50004F903F902F9008959F92AF92BF92CF9267
:100B6000DF92EF92FF920F931F93CF93DF93EC01ED
:100B70007A018B01423051056105710508F458C0B6
:100B80008A8D9B8DAC8DBD8D481759076A077B07F1
:100B900008F441C04DC0CE01B801A7010E94D202A5
:100BA0005B016C01611571058105910509F442C075
:100BB00081E0A816B104C104D104D1F12FEFA2162F
:100BC0002FEFB2062FEFC2062FEFD20611F481E00D
:100BD00032C0CE01B801A70100E010E020E030E013
:100BE0000E94E601882339F58E859F85A889B989F9
:100BF0008F3F2FEF92072FEFA2072FEFB20741F0A1
:100C00000196A11DB11D8E879F87A88BB98B9D82F0
:100C10008601750102C0992493948A8D9B8DAC8DB9
:100C2000BD8DE816F9060A071B0708F4B4CF02C009
:100C300082E001C080E0DF91CF911F910F91FF9082
:100C4000EF90DF90CF90BF90AF909F900895CF939B
:100C5000DF93EC016C817D810E94BC03982F882377
:100C600099F44E855F8568897989888199810E9488
:100C70006D01982F882341F4EA89FB8985EE8083F2
:100C8000E881F98181E08483892FDF91CF910895F4
:100C90004F925F926F927F928F929F92AF92BF928C
:100CA000CF92DF92EF92FF920F931F93CF93DF9338
:100CB000EC01D62E6C807D800894611C711C61143F
:100CC000710409F44CC18E859F85A889B989009764
:100CD000A105B10509F443C11FE0412E512C462066
:100CE00057204114510409F027C10196A11DB11DDF
:100CF0008E879F87A88BB98B4A855B856C857D85A0
:100D0000E881F981411551056105710539F4808546
:100D100091856816790608F40FC121C1828190E09F
:100D200001979301A4E036952795AA95E1F78223D0
:100D30009323892B09F000C1CF010E94D2027B01CD
:100D40008C01623071058105910508F40AC18FEFAD
:100D5000E8168FEFF8068FEF08078FEF180709F4F2
:100D600002C1E881F981828D938DA48DB58DE8163D
:100D7000F9060A071B0708F4A6C0DD2009F4EFC036
:100D80004A855B856C857D85CF010E94B8047B0117
:100D90008C01611571058105910511F487E0E4C0AE
:100DA00091E0E916F1040105110509F4DAC0AFEF8D
:100DB000EA16AFEFFA06AFEF0A07AFEF1A0709F42A
:100DC000D2C08881998140E050E060E070E00E94EC
:100DD0006D01882309F0C7C0E881F981BE9680E0E3
:100DE00092E001C011920197BFEF8F3F9B07D1F7AF
:100DF000888099808EEFA82E8FEFB82E8FEFC82EA7
:100E00008FEFD82EAE0CBF1CC01ED11EF401828DF8
:100E1000938DA48DB58D0297A109B109A816B906C5
:100E2000CA06DB0628F020E030E040E050E015C0C4
:100E3000D40112962C9130E040E050E0C601B5019B
:100E40000E946D2E9B01AC01F40186A197A1A0A583
:100E5000B1A5280F391F4A1F5B1FD4019A962D9305
:100E60003D934D935C939D97DD24CC24C3941AC08D
:100E7000C4828881998140E050E060E070E00E9487
:100E80006D01882309F06FC0E881F98182A593A5DF
:100E9000A4A5B5A50196A11DB11D82A793A7A4A7DE
:100EA000B5A7D394E881F9818281D81608F382A589
:100EB00093A5A4A5B5A58D199109A109B10982A78A
:100EC00093A7A4A7B5A7EA86FB860C871D87C880D1
:100ED000D9808EEF9FEFAFEFBFEFE80EF91E0A1F2C
:100EE0001B1FF601828D938DA48DB58D0297A109EC
:100EF000B109E816F9060A071B0728F020E030E0E0
:100F000040E050E015C0D60112962C9130E040E050
:100F100050E0C801B7010E946D2E9B01AC01F601A3
:100F200086A197A1A0A5B1A5280F391F4A1F5B1F55
:100F30002E873F87488B598B7D826C8205E0440C5D
:100F4000551C0A95E1F78EE290E0480E591E888103
:100F50009981840D951D9B8B8A8B80E005C084E070
:100F600003C082E001C081E0DF91CF911F910F911A
:100F7000FF90EF90DF90CF90BF90AF909F908F90B9
:100F80007F906F905F904F9008956F927F928F92B5
:100F90009F92AF92BF92CF92DF92EF92FF920F9308
:100FA0001F93CF93DF93EC018B0102C00F5F1F4FA4
:100FB000F80180818032D1F38F3211F08C3511F439
:100FC0000F5F1F4F1E821F8218861986F8018081CD
:100FD000803240F4CE0160E070E00E94BC031B8AC6
:100FE0001A8AEAC020E2722E95E0692EEC88FD880C
:100FF000F7018BE090E001C0719201972FEF8F3FD6
:101000009207D1F760E070E0CC24DD24A8E0B0E0E6
:1010100030E0F801EC0DFD1D20810894C11CD11CAD
:10102000213208F440C02F3209F4D5C02C3509F420
:10103000D2C02E3219F06A177B076CF0189709F0AE
:10104000B6C02E3209F0B3C0330F330F68E070E042
:10105000ABE0B0E0DECF27FF05C0E22FF0E0E557C0
:10106000FF4F2081422F50E0E0E0F1E001C03196D7
:101070008081882329F090E084179507C1F797C0F5
:10108000822F81548A3110F4326006C0822F81563B
:101090008A3110F431602052F701E60FF71F2083E8
:1010A0006F5F7F4FB6CF44E0672B09F480C0F70134
:1010B0008081853E09F46082189711F4330F330F55
:1010C000232F30E0C90183709070019709F44061CB
:1010D0002C7030702430310509F44860F7014387E3
:1010E000CE0160E070E00E94BC03482F882371F5B8
:1010F0004E855F8568897989888199810E946D0113
:10110000482F882319F5EA89FB898081882311F407
:1011100044E01CC0838583FD14C0DF018C899D8958
:101120009C01F9012BE030E0215030408FEF2F3F40
:10113000380761F09C918081981719F411963196C7
:10114000F3CFCE0160E00E944806CFCFEC89FD8945
:1011500093859470442331F0842F443051F59923C2
:1011600051F12AC0992329F5EA89FB89838584FFF7
:1011700022C00C0D1D1D95888824248930E0282963
:10118000392940E050E0A90133272227B38CAA2453
:10119000828D90E08A299B29A0E0B0E0282B392B92
:1011A0004A2B5B2B2E833F83488759871FCF86E0CE
:1011B00003C0842F01C085E0DF91CF911F910F9173
:1011C000FF90EF90DF90CF90BF90AF909F908F9067
:1011D0007F906F90089540E067CFCF93DF93EC014D
:1011E00060E070E00E94BC03482F8823E9F54E853B
:1011F0005F8568897989888199810E946D01482F6E
:10120000882391F5EA89FB89E081E53E89F1EE23A7
:1012100079F1CE0161E00E944806E6CF6A897B89B8
:10122000FB0180E290E001C0119201972FEF8F3F08
:101230009207D1F78C899D899C01D901FB012BE094
:1012400030E002C08D918193215030408FEF2F3FCD
:101250003807C1F7EC89FD8983858871FB01848794
:10126000E881F98181E08483842FDF91CF91089513
:101270004E855F8568897989888199810E946D0191
:10128000482F882359F2F0CFCF93DF93EC0194E0FD
:101290001AC0888199810E946D01982F8823F1F4EA
:1012A000EA89FB898081882309F1853E29F08E3205
:1012B00019F0838583FF16C0CE0160E00E944806C6
:1012C000982F882359F44E855F856889798941155F
:1012D000510561057105E9F6992321F01E861F86E7
:1012E000188A198A892FDF91CF91089594E0F6CF5B
:1012F0000F93CF93DF93EC019A01AB01BC01625DC8
:101300007F4F898101E00E946E1F882311F063E006
:101310006DC0C35DDD4F988180E02A91CC52D240F0
:1013200030E0822B932B85559A4A11F062E05EC023
:10133000C959DF4F288130E040E050E0522F442768
:10134000332722278A9190E0A0E0B0E0DC019927C2
:101350008827282B392B4A2B5B2B2297899190E0E9
:10136000A0E0B0E0282B392B4A2B5B2B9881C55687
:10137000D04080E0A0E0B0E0282B392B4A2B5B2B3B
:101380005070265431444445504011F460E02EC062
:1013900060E0CD57DF4F288130E040E050E0522F31
:1013A0004427332722278A9190E0A0E0B0E0DC01B7
:1013B00099278827282B392B4A2B5B2B2297899139
:1013C00090E0A0E0B0E0282B392B4A2B5B2B9881D2
:1013D00080E0A0E0B0E0282B392B4A2B5B2B50702B
:1013E000265431444445504009F061E0862FDF9196
:1013F000CF910F9108950F93CF93DF93EC0140E0CD
:1014000050E060E070E00E946D01882309F07EC02A
:101410008881833009F072C08D81882309F46EC001
:101420001AA61BA61CA61DA6BE01625D7F4FFB016E
:1014300080E092E001C0119201972FEF8F3F920759
:10144000D1F7C45DDD4F85E589938AEA8883CD5263
:10145000D24082E58EA78FA721E628AB91E499AB15
:10146000CE5EDD4F82E78993899399932883C55196
:10147000D2408E85CA5EDD4F8883C651D2408F85AB
:10148000C95EDD4F8883C751D2408E859F85A8896C
:10149000B9899D0144275527C85EDD4F28832196D1
:1014A0008B2F9927AA27BB278883C951D2408A85C9
:1014B000C65EDD4F8883CA51D2408B85C55EDD4F45
:1014C0008883CB51D2408A859B85AC85BD859D01A3
:1014D00044275527C45EDD4F288321968B2F9927FB
:1014E000AA27BB278883CD51D2402A893B894C89C2
:1014F0005D89898101E00E94C71F1D82898160E0AA
:1015000040E050E00E943820811181E0DF91CF91CE
:101510000F910895FC01009789F08081882371F074
:10152000868197818617970749F481810E94671FFA
:1015300080FD02C080E0089583E0089589E0089569
:10154000CF92DF92EF92FF920F931F93CF93DF938F
:10155000EC016A817B81888199810E948A0A182F17
:10156000882309F06EC06C8167FF02C012E069C079
:1015700061FD02C017E065C02E813F814885598515
:101580008A859B85AC85BD85281739074A075B0787
:1015900008F057C02A873B874C875D8760626C8361
:1015A00088819981211531054105510561F44E85E8
:1015B0005F85688979890E94AC05182F1E861F8671
:1015C000188A198A39C04A895B896C897D890E9489
:1015D000D2026B017C018FEFC8168FEFD8068FEF18
:1015E000E8068FEFF806B9F181E0C816D104E104EE
:1015F000F10411F412E022C0E881F981828D938D0B
:10160000A48DB58DC816D906EA06FB06D0F44A8922
:101610005B896C897D89CF010FEF1FEF2FEF3FE0D2
:101620000E94E601182F882349F488819981B70127
:10163000A6010E94AC05182F112319F08C81806837
:101640008C83812FDF91CF911F910F91FF90EF90AD
:10165000DF90CF90089511E0F1CFEF92FF920F93BA
:101660001F93DF93CF93CDB7DEB72C970FB6F894C7
:10167000DEBF0FBECDBF8C017B01FC016281738197
:10168000808191810E948A0A882359F5CE010196B2
:10169000F801958B848BE114F10431F4C80160E00A
:1016A00070E00E94BC031DC0C8010E944409843040
:1016B00031F4F80116861786108A118A02C0882331
:1016C00081F4C801B7010E94CC00C80160E00E940B
:1016D0004806843031F4F80116861786108A118A7C
:1016E00080E02C960FB6F894DEBF0FBECDBFCF9131
:1016F000DF911F910F91FF90EF9008952F923F92ED
:101700004F925F926F927F928F929F92AF92BF9211
:10171000CF92DF92EF92FF920F931F93DF93CF93BD
:1017200000D000D00F92CDB7DEB79D838C833A01F5
:101730004B01DC0112966D917C9113978D919C91D8
:101740000E948A0A8B83882309F0B7C1EC81FD814E
:10175000848187FD92C0AC81BD811A96AD90BD9009
:10176000CD90DC901D97A614B704C804D90410F4DA
:1017700081FF02C064015301EC81FD812681378124
:101780004085518516821782108611868FEF8583DA
:10179000A114B104C104D10409F45BC10190F0812A
:1017A000E02DFA83E9838281682E772488249924A6
:1017B00009E0660C771C881C991C0A95D1F7211545
:1017C000310541055105C1F119012A01089421088B
:1017D000310841085108C601B50161507040804090
:1017E0009040A40193010E948C2E79018A01C201CC
:1017F000B101A40193010E948C2EE216F3060407A6
:101800001507D0F088279927DC0186199709A809C0
:10181000B90982219321A421B521EC81FD81868320
:101820009783A087B187A81AB90ACA0ADB0A428936
:101830005389648975893AC0AC81BD811E964D91EA
:101840005D916D917C91519741155105610571052F
:1018500029F589819A8140E050E060E070E00E94C3
:10186000B804AB01BC01413051056105710541F47B
:10187000EC81FD81848180688483F2E0FB831DC15B
:101880004F3F8FEF58078FEF68078FEF7807B1F161
:10189000EC81FD8146875787608B718BAC81BD8160
:1018A00052964D935D936D937C93559741155105D9
:1018B0006105710509F059C0CCC0EC81FD818481BE
:1018C0002081318181FF0DC0C9010E94B804AB01A4
:1018D000BC01411551056105710541F464015301D5
:1018E0004AC0C9010E94D202AB01BC014F3FFFEFC9
:1018F0005F07FFEF6F07FFEF7F0751F4AC81BD81FA
:1019000014968C911497806814968C93B1E096C0CD
:10191000423051056105710508F4AACFAC81BD8143
:10192000ED91FC91828D938DA48DB58D481759074B
:101930006A077B0708F09CCFAC81BD8152964D931E
:101940005D936D937C935597FD0186819781A0856A
:10195000B185860D971DA81DB91D86839783A08725
:10196000B187A618B708C808D9086A147B048C0484
:101970009D0408F4A2CFEC81FD8186819781A0852A
:10198000B1858A0D9B1DAC1DBD1D86839783A087E5
:10199000B187D601C50119E0B695A79597958795AA
:1019A0001A95D1F7E82E85838FEF91E0A0E0B0E0A3
:1019B000A822B922CA22DB22A114B104C104D10495
:1019C00009F447C080809180EEEFAE2EEFEFBE2E7F
:1019D000EFEFCE2EEFEFDE2EA40EB51EC61ED71EE5
:1019E000F401828D938DA48DB58D0297A109B10963
:1019F000A816B906CA06DB06C0F4228130E040E032
:101A000050E0C601B5010E946D2E9B01AC01F401AE
:101A100086A197A1A0A5B1A5280F391F4A1F5B1F5A
:101A2000211531054105510559F4AC81BD8114964C
:101A30008C911497806814968C93B2E0BB833DC060
:101A40002E0D311D411D511DE394EC81FD81E58278
:101A500004C020E030E040E050E0EC81FD81868170
:101A60009781A085B1859170A070B0700097A10595
:101A7000B10569F086899789A08DB18D281739073E
:101A80004A075B0721F0268B378B408F518FEC8103
:101A9000FD81268137814085518582859385A48586
:101AA000B58582179307A407B50738F422873387D3
:101AB000448755878481806284838B810F900F9047
:101AC0000F900F900F90CF91DF911F910F91FF908A
:101AD000EF90DF90CF90BF90AF909F908F907F90CE
:101AE0006F905F904F903F902F9008950F931F93AA
:101AF000CF93DF93EC016A817B81888199810E9479
:101B00008A0A982F882309F05CC08C8185FF59C010
:101B10004A8D5B8D6C8D7D8D888199810E946D01D0
:101B2000982F882309F04DC00E8D1F8DF8018385F5
:101B3000806283878A85848F8B85858F8A859B8544
:101B4000AC85BD85CD01AA27BB27868F8A859B855D
:101B5000AC85BD858B2F9927AA27BB27878F8E85BC
:101B6000828F8F85838F8E859F85A889B989CD01C6
:101B7000AA27BB27848B8E859F85A889B989CD012B
:101B8000AA27BB27892F9927858B0E948222F801DB
:101B9000668B272F3327278B9C0144275527208FBF
:101BA000692F772788279927618F8C818F7D8C8378
:101BB000E881F98181E08483888199810E94FB0911
:101BC000982F892FDF91CF911F910F910895CF9377
:101BD000DF93EC010E94760D882311F4198218829C
:101BE000DF91CF9108952F923F924F925F926F9223
:101BF0007F928F929F92AF92BF92CF92DF92EF929D
:101C0000FF920F931F93CF93DF93EC01162F072FB3
:101C10004A011901F901118210826A817B81888150
:101C200099810E948A0A782E882309F0A1C18C81AB
:101C300087FD60C081FD03C0F7E07F2E99C12A8532
:101C40003B854C855D85C401A0E0B0E0820F931F09
:101C5000A41FB51F82179307A407B50710F48824A3
:101C60009924812F902F9C0129016AC12E813F81E7
:101C700048855985DA01C9019170A070B07000974C
:101C8000A105B10509F00CC1E881F9819D8182812E
:101C9000981708F440C02115310541055105A9F4F4
:101CA0006E857F8588899989611571058105910502
:101CB000C9F4CF0140E050E060E070E00E94B80459
:101CC0006E877F87888B998B07C04A895B896C896F
:101CD0007D89CF010E94B8046115710581059105C8
:101CE00009F432C1613071058105910531F48C81AF
:101CF00080688C83E2E07E2E3BC16F3FFFEF7F0761
:101D0000FFEF8F07FFEF9F0709F4D8C06A8B7B8B2B
:101D10008C8B9D8B1D82E881F98122A533A544A57A
:101D200055A58E899F89A88DB98D281739074A072F
:101D30005B0751F4CF0140E050E060E070E00E94AA
:101D40006D01882309F0BAC0088119812A893B896D
:101D50004C895D892250304040405040F801828DCE
:101D6000938DA48DB58D0297A109B1092817390764
:101D70004A075B0708F0BBCF6280662D70E080E009
:101D800090E00E946D2E9B01AC01F80186A197A105
:101D9000A0A5B1A5280F391F4A1F5B1F21153105CA
:101DA0004105510509F4A3CF8D8159016A01A80E9F
:101DB000B11CC11CD11C7401EF2CFF24E694E1146A
:101DC000F10409F44AC0282F30E0C701820F931FA5
:101DD000662D70E06817790718F47B01E21AF30AA0
:101DE000F8018181B201A60195010E2D0E94C71F45
:101DF000882309F063C0E881F98122A533A544A5B1
:101E000055A52A193B094C095D09C701A0E0B0E0BE
:101E1000281739074A075B07C0F4DF019E9669E07F
:101E2000220F331F441F551F6A95D1F7F201E20FAD
:101E3000F31F9F0120503E4F02C081918D93E21706
:101E4000F307D9F7E881F98114828D818E0D8D8396
:101E5000B701762F6627770F59C02E813F814885BD
:101E600059858A859B85AC85BD85281739074A0722
:101E70005B0778F0C80140E050E060E070E00E944D
:101E80006D018823D9F4E881F981A2A6B3A6C4A67E
:101E9000D5A6AE8ABF8AC88ED98E8D818F5F8D837D
:101EA000CE80DF80E884F9844E895F89688D798DE2
:101EB000888199810E946D01882331F08C8180682E
:101EC0008C837724739454C0C601917020E032E073
:101ED000281B390BB4012815390508F4B9019B01F9
:101EE0008E819F8191708E96E881F981E80FF91FAC
:101EF000D20102C08D918193215030408FEF2F3F4E
:101F00003807C1F7E881F98121E02483460E571E86
:101F1000CB01A0E0B0E02E813F8148855985280F94
:101F2000391F4A1F5B1F2E833F8348875987F10162
:101F300080819181860F971F91838083861A970AEB
:101F40008114910409F092CE2E813F8148855985F4
:101F50008A859B85AC85BD8582179307A407B50745
:101F600020F42A873B874C875D878C8180628C8335
:101F7000872DDF91CF911F910F91FF90EF90DF9010
:101F8000CF90BF90AF909F908F907F906F905F9019
:101F90004F903F902F900895EF92FF920F931F93D1
:101FA000DF93CF9300D00F92CDB7DEB77C018B01CA
:101FB0008AE0E816F10421F48DE090E00E94CC0F55
:101FC0000115110599F0E982C801BE016F5F7F4FCD
:101FD00041E050E09E012E5F3F4F0E94F30D8A8149
:101FE0009B81892B19F4EE24EA94FE2CC7010F90F3
:101FF0000F900F90CF91DF911F910F91FF90EF9075
:102000000895EF92FF920F931F93CF93DF938C016C
:102010007B01C0E0D0E00DC090E0B7010E94CC0F82
:102020008F5F9F4F19F4CFEFDFEF07C00F5F1F4F98
:102030002196F8018081882379F7CE01DF91CF9135
:102040001F910F91FF90EF9008952F923F924F9222
:102050005F926F927F928F929F92AF92BF92CF9238
:10206000DF92EF92FF920F931F93DF93CF93CDB741
:10207000DEB763970FB6F894DEBF0FBECDBF6AA47C
:102080007BA48E01045D1F4F1A8A198A20E030E07C
:10209000D3018C91882309F417C10894611C711C29
:1020A000853271F090E068A579A50E94CC0F9C0163
:1020B000BFEF8F3F9B0711F44801FAC048014CC0A5
:1020C000D301ED913D01E03311F01B8A04C0ED9185
:1020D0003D01B1E0BB8BAA24BB2413C0C50153E072
:1020E000880F991F5A95E1F7AA0CBB1CA80EB91EC0
:1020F000AE0EB11CE0EDFFEFAE0EBF1ED301ED91B1
:102100003D018E2F80538A3048F3EC3631F4BB8981
:10211000B260BB8BD301ED913D01E33749F492E00E
:10212000892E912C800E911EF80180819181BBC077
:10213000E336A9F482E0882E912C800E911ED801FE
:102140008D919C9168A579A50E94CC0F9C01BFEF51
:102150008F3F9B0709F4ACC021E030E0A9C0E43612
:1021600039F0E53729F0E83509F0AEC020E101C0CB
:102170002AE0FB89F1FF0DC0B4E08B2E912C800E7C
:10218000911ED801ED90FD900D911C91E43609F55A
:1021900013C0C8010296D8016D917C91E43639F4E0
:1021A0004C017B010027F7FC0095102F05C04C0166
:1021B0007B0100E010E00DC017FF0BC010950095EB
:1021C000F094E094E11CF11C011D111DBB89B46069
:1021D000BB8B188AAFE0CA2ED12C222E3324442484
:1021E0005524C801B701A20191010E948C2E862FAF
:1021F000805D8A3308F0895F0894C108D108E1E066
:10220000F0E0EC0FFD1FEC0DFD1D8083C114D10427
:10221000E9F0C801B701A20191010E948C2EC90109
:10222000DA017C018D01E114F10401051105C9F603
:10223000EB89E2FF0BC00894C108D108E1E0F0E0AF
:10224000EC0FFD1FEC0DFD1D4DE240838FE090E093
:102250008A199B090894C108D108E1E0F0E0EC0F6D
:10226000FD1FEC0DFD1D0894C11CD11CAB892A2F4C
:1022700030E0217030700BC00894C108D1082115DE
:10228000310511F440E201C040E340833197C114AD
:10229000D10419F08C159D057CF381E090E08C0F42
:1022A0009D1F8C0D9D1D68A579A50E9401109C01A4
:1022B000E989FA89E20FF31FFA8BE98BFFEF2F3FD1
:1022C0003F0741F08401E4CE4FEF2F3F340711F078
:1022D00029893A89C90163960FB6F894DEBF0FBE0B
:1022E000CDBFCF91DF911F910F91FF90EF90DF90C5
:1022F000CF90BF90AF909F908F907F906F905F90A6
:102300004F903F902F9008952F923F924F925F925F
:102310006F927F928F929F92AF92BF92CF92DF92F5
:10232000EF92FF920F931F93CF93DF93EC01162F41
:10233000072F4A011901F901118210826A817B81FC
:10234000888199810E948A0A582E882309F03FC10A
:102350008C8187FD4CC080FD03C007E0502E37C143
:102360002A853B854C855D858E819F81A885B985B1
:10237000281B390B4A0B5B0BC401A0E0B0E0281707
:1023800039074A075B0708F44901812F902F9C0108
:10239000390119C12E813F8148855985DA01C9016A
:1023A0009170A070B0700097A105B10509F0BFC091
:1023B000E881F9819D818281981750F121153105BD
:1023C0004105510529F46E857F858889998907C063
:1023D0004A895B896C897D89CF010E94D202623073
:1023E00071058105910530F48C8180688C8312E041
:1023F000512EEDC06F3FFFEF7F07FFEF8F07FFEF1D
:102400009F0709F4A2C06A8B7B8B8C8B9D8B1D82EE
:10241000088119812A893B894C895D892250304085
:1024200040405040F801828D938DA48DB58D029768
:10243000A109B109281739074A075B07A8F64280A6
:10244000642D70E080E090E00E946D2E9B01AC0155
:10245000F80186A197A1A0A5B1A5280F391F4A1F91
:102460005B1F211531054105510509F4BDCF8D8153
:1024700069017A01C80ED11CE11CF11C5401AB2C7E
:10248000BB24A694A114B10409F44BC0282F30E05A
:10249000C501820F931F642D70E06817790718F447
:1024A0005B01A21AB30AF8018181B301A701960169
:1024B0000A2D0E946E1F882309F047C0E881F98128
:1024C0008481882331F122A533A544A555A52C1973
:1024D0003D094E095F09C501A0E0B0E028173907A2
:1024E0004A075B07B0F4A9E0220F331F441F551FB2
:1024F000AA95D1F7C301820F931FDF019E96FC01BD
:102500009C0120503E4F02C08D918193E217F3074A
:10251000D9F78D818A0D8D83B501762F6627770FC8
:1025200038C0CE8ADF8AE88EF98E8F5F8D83CE80A9
:10253000DF80E884F9844E895F89688D798D888190
:1025400099810E946D01882331F08C8180688C8391
:10255000552453943CC0C601917020E032E0281B02
:10256000390BB4012815390508F4B9019B018E8196
:102570009F8191708E96E881F981E80FF91FD30150
:1025800002C081918D93215030408FEF2F3F38074B
:10259000C1F7660E771ECB01A0E0B0E02E813F812F
:1025A00048855985280F391F4A1F5B1F2E833F839B
:1025B00048875987F10180819181860F971F918308
:1025C0008083861A970A8114910409F0E3CE852D41
:1025D000DF91CF911F910F91FF90EF90DF90CF90FF
:1025E000BF90AF909F908F907F906F905F904F9033
:1025F0003F902F9008956F927F928F929F92AF920B
:10260000BF92CF92DF92EF92FF920F931F93DF93CF
:10261000CF9300D0CDB7DEB76C015B014A018C01CE
:10262000EE24FF240894A108B1083E010894611C1F
:10263000711C16C0C401B80141E050E093010E9432
:10264000841189819A81019771F4F80180818D301C
:1026500039F00894E11CF11C0F5F1F4F8A3019F00C
:10266000EA14FB043CF3F8011082EF2811F4CC24A7
:10267000DD24C6010F900F90CF91DF911F910F9134
:10268000FF90EF90DF90CF90BF90AF909F908F9092
:102690007F906F9008956F927F928F929F92AF92EA
:1026A000BF92CF92DF92EF92FF920F931F93CF933F
:1026B000DF93DC01142FED91FC9111978081282F7D
:1026C00030E0205330402A30310550F481818A3384
:1026D00039F43296ED93FC93232B11F08BE075C205
:1026E000C0911003D0911103FB01D183C0832097C7
:1026F00011F48CE06AC28881882359F089810E9494
:10270000671F80FD06C0112309F45CC282FD58C218
:1027100059C21882198280E00E94751E80FF02C093
:1027200083E053C2112311F082FD4AC2CE0140E082
:1027300050E060E070E00E947809813021F0AA2426
:10274000BB2465012FC0FE01E451FE4F8481882324
:1027500009F43AC2838590E0A0E0B0E0D82ECC2402
:10276000BB24AA24828590E0A0E0B0E0DC01992798
:102770008827A82AB92ACA2ADB2A808590E0A0E007
:10278000B0E0A82AB92ACA2ADB2A918580E0A0E015
:10279000B0E0A82AB92ACA2ADB2ACE01B601A501CF
:1027A0000E947809833011F481E00FC2882309F078
:1027B0000BC29AAD80E029AD30E0822B932B805084
:1027C000924009F001C2CB5BDF4F988180E02A91F3
:1027D000C454D04030E0822B932B7C0100E010E009
:1027E000E114F1040105110541F5CB5ADF4F888151
:1027F00090E0A0E0B0E0182F0027FF24EE248A919B
:1028000090E0A0E0B0E0DC0199278827E82AF92AC7
:102810000A2B1B2B2297899190E0A0E0B0E0E82AD8
:10282000F92A0A2B1B2B9881C355D04080E0A0E0E9
:10283000B0E0E82AF92A0A2B1B2BEE8AFF8A088FC0
:10284000198F2EAD2B8330E040E050E0C801B70176
:102850000E946D2E3B014C019DAD80E02CAD30E01F
:10286000822B932BA0E0B0E08A0D9B1DAC1DBD1DFB
:102870008E8F9F8FA8A3B9A38BAD8A83C05CDF4FD7
:102880009881C054D04080E02FAD422F50E0482BBB
:10289000592B59874887CE5BDF4F988180E02A917A
:1028A000C154D04030E0822B932B7C0100E010E03B
:1028B000E114F1040105110541F5CF5ADF4F88817C
:1028C00090E0A0E0B0E0182F0027FF24EE248A91CA
:1028D00090E0A0E0B0E0DC0199278827E82AF92AF7
:1028E0000A2B1B2B2297899190E0A0E0B0E0E82A08
:1028F000F92A0A2B1B2B9881CF54D04080E0A0E00E
:10290000B0E0E82AF92A0A2B1B2B9DAD80E02CAD04
:1029100030E0822B932BA0E0B0E0E81AF90A0A0B12
:102920001B0BE618F70808091909B4E056954795F6
:10293000BA95E1F7CA01A0E0B0E0E81AF90A0A0B7B
:102940001B0B2A8130E040E050E0C801B7010E9433
:102950008C2E2E5F3F4F4F4F5F4F2A8F3B8F4C8FF8
:102960005D8F273F8FE0380780E0480780E05807F9
:1029700010F411E007C0275F3F4F4040504008F07F
:1029800033C112E08E8D9F8DA8A1B9A1860D971D30
:10299000A81DB91D8AA39BA3ACA3BDA38885998557
:1029A000A4E096958795AA95E1F7A0E0B0E02E8D7A
:1029B0003F8D48A159A1820F931FA41FB51F860DFB
:1029C000971DA81DB91D8EA39FA3A8A7B9A78FEF18
:1029D0009FEFAFEFBFEF8E879F87A88BB98B1C82CD
:1029E000133009F0DCC01D82C15ADF4F388120E06E
:1029F0008A91CE55D04090E0282B392B40E050E012
:102A00002A0D3B1D4C1D5D1D2A8B3B8B4C8B5D8B1A
:102A1000BE01625D7F4F898101E00E946E1F8823A5
:102A200009F0BDC0C35DDD4F988180E02A91CC5292
:102A3000D24030E0822B932B85559A4A09F0AFC0E3
:102A400029A930E040E050E0522F442733272227C5
:102A500088A990E0A0E0B0E0DC0199278827282B26
:102A6000392B4A2B5B2B8EA590E0A0E0B0E0282B01
:102A7000392B4A2B5B2B9FA580E0A0E0B0E0282BF0
:102A8000392B4A2B5B2B225532454146514409F0E4
:102A900086C0CB5EDD4F288130E040E050E0522F11
:102AA0004427332722278A9190E0A0E0B0E0DC01A0
:102AB00099278827282B392B4A2B5B2B2297899122
:102AC00090E0A0E0B0E0282B392B4A2B5B2B9881BB
:102AD000C351D24080E0A0E0B0E0282B392B4A2B34
:102AE0005B2B225732474144514609F058C0C35E20
:102AF000DD4F288130E040E050E0522F442733275B
:102B000022278A9190E0A0E0B0E0DC019927882795
:102B1000282B392B4A2B5B2B2297899190E0A0E040
:102B2000B0E0282B392B4A2B5B2B9881CB51D2401C
:102B300080E0A0E0B0E0282B392B4A2B5B2B2A87C2
:102B40003B874C875D87C75EDD4F288130E040E0E2
:102B500050E0522F4427332722278A9190E0A0E0AB
:102B6000B0E0DC0199278827282B392B4A2B5B2BD7
:102B70002297899190E0A0E0B0E0282B392B4A2BD6
:102B80005B2B9881C751D24080E0A0E0B0E0282BB9
:102B9000392B4A2B5B2B2E873F87488B598B188309
:102BA0001AA61BA61CA61DA68091120390911303C2
:102BB000019690931303809312039F838E8302C028
:102BC0008AE003C080E001C08DE0DF91CF911F91CA
:102BD0000F91FF90EF90DF90CF90BF90AF909F90BC
:102BE0008F907F906F900895C35ADF4F288130E017
:102BF00040E050E0522F4427332722278A9190E06B
:102C0000A0E0B0E0DC0199278827282B392B4A2B3C
:102C10005B2B2297899190E0A0E0B0E0282B392B24
:102C20004A2B5B2B9881CB55D04080E0A0E0B0E0F0
:102C3000282B392B4A2B5B2B2AA33BA34CA35DA348
:102C400013E0ACCECF92DF92EF92FF920F931F93DF
:102C5000DF93CF93CDB7DEB7CF54D0400FB6F89403
:102C6000DEBF0FBECDBF8E01025B1F4FD8018D931B
:102C70009C936B01CE0101969FAB8EAB82E2E82E56
:102C8000F12CEC0EFD1EC801B70141E00E944B1370
:102C9000882309F0F4C08AA19BA199AF88AFF801FD
:102CA00060817181C7010E94C507882309F0E7C0D0
:102CB0008CA99DA9009711F484E0E1C0DC01FE011C
:102CC0003D9604C01A968C911A9781931196EE1531
:102CD000FF05C1F7DE01D896F7019D0102C0819181
:102CE0008D93E217F307D9F78E01085C1F4FC801D7
:102CF000B6010E94C507882311F488E0C0C0843063
:102D000009F0BDC0C8010E94ED08882309F0B7C0D2
:102D1000FE01E65BFF4F40815181DA01FE013F96E3
:102D200004C081911C968C931C971196EE15FF059B
:102D3000C1F78D858062DA011B968C931B97EAA1FF
:102D4000FBA181E084831B968C911B9784FF8BC031
:102D5000C8ACD9AC5A962C915A9730E054968C91C5
:102D6000549790E0282B392B55969C91559780E0ED
:102D7000282B392B5B969C9180E0282B392B7901ED
:102D800000E010E08EEF9FEFAFEFBFEFE80EF91E0F
:102D90000A1F1B1FF601828D938DA48DB58D02979E
:102DA000A109B109E816F9060A071B0708F066C071
:102DB000228130E040E050E0C801B7010E946D2E52
:102DC000AB01BC01F60186A197A1A0A5B1A5480F52
:102DD000591F6A1F7B1F411551056105710509F4D3
:102DE0004DC0C6010E946D01A8ADB9AD882309F0A0
:102DF00046C0BD01625B7F4FFB0181818E3299F538
:102E00008C918330B1F4FE01FE96208131814281A4
:102E1000538192968D919D910D90BC91A02D281774
:102E200039074A075B0729F420E030E040E050E032
:102E300006C0FE01FE962081318142815381DB0173
:102E40005A962C935A97832F99275B968C93CA0195
:102E5000AA27BB27FB01848B892F9927858BE8AD97
:102E6000F9AD81E08483CE0182960E9427068823F3
:102E700031F48AA19BA10E94FB0901C082E0C15BE1
:102E8000DF4F0FB6F894DEBF0FBECDBFCF91DF91FD
:102E90001F910F91FF90EF90DF90CF900895EF92E8
:102EA000FF920F931F93DF93CF93CDB7DEB7A49715
:102EB0000FB6F894DEBF0FBECDBF9CA38BA38B01D2
:102EC0009DE0E92EF12CEC0EFD1ECE018396B7019C
:102ED00041E00E944B13882341F5CE0101969AA34D
:102EE00089A36BA17CA1C7010E94C5078823E9F4CF
:102EF000EF8DF8A1309711F486E017C0D80116962F
:102F00008C911697868B17968C911797878B1496B2
:102F10008C911497808F15968C91818FED85FE850D
:102F200081E08483CF010E94FB09A4960FB6F89438
:102F3000DEBF0FBECDBFCF91DF911F910F91FF90EC
:102F4000EF900895EF92FF920F931F93DF93CF932B
:102F5000CDB7DEB7A4970FB6F894DEBF0FBECDBFD6
:102F60009CA38BA3E62EF42E8E01035F1F4FCE0190
:102F70008396B80141E00E944B13882309F5CE01E6
:102F800001969AA389A36BA17CA1C8010E94C507E1
:102F90008823B1F4EF8DF8A1309711F486E010C0CA
:102FA0009F2D9772892F8095238582239E21892BBF
:102FB0008387ED85FE8581E08483CF010E94FB0934
:102FC000A4960FB6F894DEBF0FBECDBFCF91DF91B0
:102FD0001F910F91FF90EF9008952F923F924F9283
:102FE0005F926F927F928F929F92AF92BF92CF9299
:102FF000DF92EF92FF920F931F93DF93CF93CDB7A2
:10300000DEB7AC970FB6F894DEBF0FBECDBF9CA362
:103010008BA37DE0E72EF12CEC0EFD1ECE018396F6
:10302000B70141E00E944B13182F882309F04CC1CF
:10303000CE0101969AA389A36BA17CA1C7010E942E
:10304000C507182F882311F418E03EC1843009F019
:103050003BC18D859E8540E050E060E070E00E94BD
:10306000B8044B015C01611571058105910511F4EE
:1030700017E02AC1613071058105910511F412E054
:1030800023C16F3F3FEF73073FEF83073FEF930786
:1030900009F434C18D859E8540E050E060E070E029
:1030A0000E946D01182F882309F00EC10D851E8521
:1030B0006EEFC62E6FEFD62E6FEFE62E6FEFF62E69
:1030C000C80CD91CEA1CFB1CF801828D938DA48DC1
:1030D000B58D0297A109B109C816D906EA06FB0603
:1030E00020F044245524320114C0F801228130E03C
:1030F00040E050E0C701B6010E946D2E2B013C015B
:10310000F80186A197A1A0A5B1A5480E591E6A1E77
:103110007B1E5EE2252E312C200E311EF10180E057
:1031200092E001C0119201972FEF8F3F9207D1F7E4
:10313000F1018BE090E020E201C0219301973FEF85
:103140008F3F9307D1F78EE2F80186A780E181AF28
:103150000E9482226CA70C5B1F4FF8016193272FFE
:1031600033272BA721939C01442755272AA7219376
:10317000692F77278827992769A7619388A6819265
:103180008F01892D99278FA38083C501AA27BB278B
:103190008EA307501040F80181938F01892F992742
:1031A0008DA3808303541040F10120E230E003C07E
:1031B000808180A33196215030408FEF2F3F380718
:1031C000B9F7015B1F4F8EE2F80180830F54104066
:1031D0002B893C894D895E89ED85FE858081833010
:1031E00069F482A193A1A4A1B5A1281739074A07C0
:1031F0005B0721F420E030E040E050E008591F4F29
:10320000F80121938F01832F99278083CA01AA2770
:10321000BB2707501040F8018193892F992780839D
:103220007301620101E01FC0C2A6D3A6E4A6F5A601
:103230000483CF0140E050E060E070E00E946D0147
:10324000182F882309F040C0F10180E092E001C00E
:10325000119201972FEF8F3F9207D1F70894C11C6D
:10326000D11CE11CF11CED85FE859C2D94198281F9
:103270009817D0F2CE010D960E94ED08182F8823E2
:1032800039F08D859E85B501A4010E94AC051CC056
:10329000EF8DF8A180E183873CA5368B8BA5878BCA
:1032A0002AA5208F39A5318F88A5828F2FA1238F42
:1032B0003EA1348B8DA1858BED85FE8581E08483D5
:1032C000CF010E94FB09182F812FAC960FB6F894FE
:1032D000DEBF0FBECDBFCF91DF911F910F91FF9049
:1032E000EF90DF90CF90BF90AF909F908F907F90A6
:1032F0006F905F904F903F902F90089511E0E4CF32
:10330000CF92DF92EF92FF920F931F93DF93CF93B1
:10331000CDB7DEB7EA970FB6F894DEBF0FBECDBFCC
:103320009AAF89AF0DE0C02ED12CCC0EDD1ECE01A0
:10333000C996B60141E00E944B13882309F071C081
:10334000CE0101969AA389A369AD7AADC6010E9408
:10335000C507882309F065C0EF8DF8A1309711F4F7
:1033600086E05FC08385482F80FD5AC0958980E044
:10337000248930E0822B932BA0E0B0E08C01FF2465
:10338000EE24938D80E0228D30E0822B932BA0E001
:10339000B0E0E82AF92A0A2B1B2B44FF29C082E05F
:1033A000E816F1040105110510F482E03AC0DE01CF
:1033B0009396F6019D0102C081918D93E217F30768
:1033C000D9F7E9A6FAA60BA71CA7E3E2CE2ED12CCB
:1033D000CC0EDD1EC60162E070E00E94BC038823B3
:1033E00001F5C6010E9444098823D1F08430C9F454
:1033F000CE010D960E942706882399F4E114F1046A
:103400000105110541F08D859E85B801A7010E9437
:10341000AC05882331F48D859E850E94FB0901C08F
:1034200087E0EA960FB6F894DEBF0FBECDBFCF910E
:10343000DF911F910F91FF90EF90DF90CF90089553
:103440002F923F924F925F926F927F928F929F92B4
:10345000AF92BF92CF92DF92EF92FF920F931F93A2
:10346000DF93CF93CDB7DEB729970FB6F894DEBFC1
:103470000FBECDBF9A8389837D836C832A01CE01E1
:103480000196BA0140E00E944B13882309F0EBC07B
:10349000D201ED91FC912685378540895189E28CD6
:1034A000F38C048D158DD801C7010297A109B109CC
:1034B00082179307A407B50738F0EC81FD812083BC
:1034C000318342835383CEC030803B82232D213011
:1034D000E1F5AA24BB24650192E0E92EF12C012D2F
:1034E000112DD2018D919C91B801A7010E94D202A9
:1034F0006F3FBFEF7B07BFEF8B07BFEF9B0711F459
:1035000081E0B1C0613071058105910511F482E05F
:10351000AAC0611571058105910529F40894A11CC3
:10352000B11CC11CD11C0894E11CF11C011D111D12
:10353000D201ED91FC91828D938DA48DB58DE8160D
:10354000F9060A071B0768F27BC0668C778C80A09F
:1035500091A0AA24BB24650160E070E0E0E0F0E007
:1035600061157105A9F4F20180819181B401A30173
:103570000E946D01882309F076C00894611C711CBB
:10358000811C911CD201ED91FC91BE9660E072E02D
:10359000B181B887208129873B81323099F4BF837C
:1035A0001E82822F90E0AE81BF818A2B9B2B892BBC
:1035B00029F40894A11CB11CC11CD11C3296625084
:1035C000704033C0238130E040E050E0522F442768
:1035D00033272227828190E0A0E0B0E0DC01992728
:1035E0008827282B392B4A2B5B2B3984832D90E09D
:1035F000A0E0B0E0282B392B4A2B5B2B3884222407
:10360000C101A0E0B0E0282B392B4A2B5B2B5F7067
:10361000211531054105510529F40894A11CB11C5F
:10362000C11CD11C3496645070400894E108F10824
:1036300001091109E114F1040105110509F090CF08
:10364000D201ED91FC91A686B786C08AD18ABB8152
:10365000B33011F481E08583EC81FD81A082B182D9
:10366000C282D38280E029960FB6F894DEBF0FBEE7
:10367000CDBFCF91DF911F910F91FF90EF90DF9021
:10368000CF90BF90AF909F908F907F906F905F9002
:103690004F903F902F900895CF92DF92EF92FF923C
:1036A0001F93DF93CF93CDB7DEB7A4970FB6F894EF
:1036B000DEBF0FBECDBF9CA38BA36B012DE0E22E1E
:1036C000F12CEC0EFD1ECE018396B70140E00E9466
:1036D0004B13182F8823B1F4CE0101969AA389A326
:1036E0006BA17CA1C7010E94C507182F882351F444
:1036F0008F8D98A1892B11F416E004C0C701B60183
:103700000E94CC00812FA4960FB6F894DEBF0FBEA6
:10371000CDBFCF91DF911F91FF90EF90DF90CF90C1
:1037200008950F931F93DF93CF93CDB7DEB72E97F6
:103730000FB6F894DEBF0FBECDBF8C017E876D87BC
:10374000CE010D96B80140E00E944B13882309F08A
:1037500046C0CE010196D80155969C938E935497FE
:103760006D857E85C8010E94C5078823A9F5D8010B
:103770005296ED91FC9153973097F9F0838584FF31
:103780002DC0358920E0848990E0282B392B40E03A
:1037900050E0A90133272227938D80E0628D70E0ED
:1037A000862B972BA0E0B0E0282B392B4A2B5B2BE4
:1037B000F8012683378340875187D801ED91FC912A
:1037C00011978681978113969C938E931297C801C7
:1037D00060E070E00E94BC03843009F485E02E961E
:1037E0000FB6F894DEBF0FBECDBFCF91DF911F9112
:1037F0000F9108955F926F927F928F929F92AF92F6
:10380000BF92CF92DF92EF92FF920F931F93DF93BD
:10381000CF93CDB7DEB7A4970FB6F894DEBF0FBE37
:10382000CDBF3C017CA36BA3DC011D921C926FE118
:10383000562E54228E01035F1F4F4E71CE01839688
:10384000B8010E944B13882311F0282F37C1CE01F5
:1038500001969AA389A36BA17CA1C8010E94C50708
:10386000282F452D50E0CA018C719070892B09F4E6
:1038700088C0222379F0243009F020C1C8010E94B9
:10388000ED08282F882309F019C1B8E05B2ACF8CF6
:10389000D8A05BC052FE02C028E010C1CF8CD8A0D7
:1038A000C114D10409F407C1F6018385817109F0BF
:1038B00002C153FE4AC0958980E0248930E0822B02
:1038C000932BA0E0B0E08C01FF24EE24938D80E0E8
:1038D000228D30E0822B932BA0E0B0E0E82AF92A79
:1038E0000A2B1B2B148A158A128E138E148E158E9A
:1038F000168E178EED85FE8581E0848382A493A4C5
:10390000A4A4B5A4E114F10401051105A1F0CF01AF
:10391000B801A7010E94AC05282F882309F0CEC06A
:10392000ED85FE850894E108F10801091109E28698
:10393000F386048715878D859E85B501A4010E94B5
:103940006D01282F882309F0B9C053FE2CC0D60181
:103950001B961C920E948222F6016687272F33272E
:1039600027879C0144275527208B692F7727882795
:103970009927618BED85FE8581E08483F0E25F2AE3
:1039800012C0222309F09AC0CF8CD8A0C114D10450
:1039900009F493C0D6011B968C9184FD8EC051FE14
:1039A00002C080FD88C0ED85FE8522A533A544A513
:1039B00055A5D3015A962D933D934D935C935D97F6
:1039C0008F8D98A15F969C938E935E9714965C92D0
:1039D000D60155963C91559720E054968C9154977A
:1039E00090E0282B392B40E050E0A9013327222713
:1039F0005B969C915B9780E05A966C9170E0862B69
:103A0000972BA0E0B0E0282B392B4A2B5B2BD3015E
:103A10001E962D933D934D935C935197D6015F96DF
:103A20002C915F9730E040E050E0522F442733273D
:103A300022275E968C9190E0A0E0B0E0DC0199270F
:103A40008827282B392B4A2B5B2BD6015C968C912F
:103A500090E0A0E0B0E0282B392B4A2B5B2BD6015D
:103A60005D969C9180E0A0E0B0E0282B392B4A2B9A
:103A70005B2BD3011A962D933D934D935C931D9729
:103A800016961D921D921D921C9219978FEF1596F6
:103A90008C93159756961D921D921D921C925997C4
:103AA0001196FC93EE938681978113969C938E9347
:103AB000129720E003C027E001C024E0822FA496E3
:103AC0000FB6F894DEBF0FBECDBFCF91DF911F912F
:103AD0000F91FF90EF90DF90CF90BF90AF909F90AD
:103AE0008F907F906F905F900895FC0184E18093A8
:103AF00014039FEF9EBD0DB407FEFDCF8EB58F3F23
:103B000029F4809114038823A9F72EC08E3F61F514
:103B10009FEF9EBD0DB407FEFDCF8EB580839EBD89
:103B20000DB407FEFDCF8EB581839EBD0DB407FE9B
:103B3000FDCF8EB582839EBD0DB407FEFDCF8EB541
:103B400083836450704011F03496E3CF8FEF8EBDC5
:103B50000DB407FEFDCF8EB58FEF8EBD0DB407FE01
:103B6000FDCF8EB581E0089580E00895FC0182E3E9
:103B7000809315038FEF8EBD0DB407FEFDCF8EB57C
:103B80009FEF9EBD0DB407FEFDCF8EB58F3F31F088
:103B9000809115038823A9F790E02EC06EBD0DB467
:103BA00007FEFDCF6D3F11F491E026C090E08081CB
:103BB0008EBD0DB407FEFDCF81818EBD0DB407FE15
:103BC000FDCF915011F03296F2CF8FEF8EBD0DB434
:103BD00007FEFDCF8FEF8EBD0DB407FEFDCF8FEF3B
:103BE0008EBD0DB407FEFDCF8EB590E08F71853090
:103BF00009F091E081E09827892F0895DF92EF92F4
:103C0000FF920F931F93D82E7A018B0187FF0CC070
:103C100087E740E050E060E070E00E94FE1D8230E7
:103C200008F05DC08FE7D8222C9A2C9882E380930D
:103C300015038FEF8EBD0DB407FEFDCF8EB59FEF40
:103C40009EBD0DB407FEFDCF8EB58F3F31F0809144
:103C500015038823A9F78FEF42C0DEBC0DB407FE21
:103C6000FDCF812F9927AA27BB278EBD0DB407FE54
:103C7000FDCFC801AA27BB278EBD0DB407FEFDCF1F
:103C8000BB27A12F902F8F2D8EBD0DB407FEFDCF2A
:103C9000EEBC0DB407FEFDCF80E4D81611F485E923
:103CA00006C088E4D81611F487E801C081E08EBD13
:103CB0000DB407FEFDCF8CE4D81631F48FEF8EBD26
:103CC0000DB407FEFDCF8EB59AE02FEF2EBD0DB4DB
:103CD00007FEFDCF8EB587FF02C09150B9F71F9147
:103CE0000F91FF90EF90DF900895EF92FF920F9366
:103CF0001F93DF93CF9300D000D0CDB7DEB78823DA
:103D000011F081E0D9C080918B0181FDD3C083E0A7
:103D100080931403809114038823E1F780E385B92D
:103D200080EB84B980E58CBD81E08DBD8AE09FEF9A
:103D30009EBD0DB407FEFDCF2EB58150C9F780E4BE
:103D400040E050E060E070E00E94FE1D813009F02C
:103D50007EC084E68093140388E44AEA51E060E080
:103D600070E00E94FE1D813009F04AC07E01089477
:103D7000E11CF11C87019FEF9E012B5F3F4F9EBD11
:103D80000DB407FEFDCF8EB5F80181938F01E217C8
:103D9000F307A9F78B81813009F059C08C818A3AE9
:103DA00009F055C080911403882349F089EE40E062
:103DB00050E060E070E40E94FE1D882399F7809136
:103DC0001403882309F443C08AE740E050E060E030
:103DD00070E00E94FE1D8823D1F59FEF9EBD0DB4BB
:103DE00007FEFDCF8EB5F70181937F01E017F10744
:103DF000A9F7898186FD02C014E02AC01CE028C012
:103E000089EE40E050E060E070E00E94FE1D8230EC
:103E100018F001E411E002C009EE12E080911403F1
:103E2000882349F0802F40E050E060E070E00E947D
:103E3000FE1D882399F780911403882341F080E5C3
:103E400040E052E060E070E00E94FE1D811110E051
:103E5000109316032C9A8FEF8EBD0DB407FEFDCF85
:103E60008EB5112321F080918B018E7F21C02C987B
:103E700082E3809315038FEF8EBD0DB407FEFDCF57
:103E80008EB59FEF9EBD0DB407FEFDCF8EB58F3F63
:103E900021F0809115038823A9F72C9A8FEF8EBD0E
:103EA0000DB407FEFDCF8EB51CBC80918B018160E7
:103EB00080938B0180918B010F900F900F900F904A
:103EC000CF91DF911F910F91FF90EF90089588237C
:103ED00011F081E0089580918B0108950F93CF93A5
:103EE000DF93EB01882309F04CC0002309F449C09B
:103EF00080918B0180FF02C003E044C080911603D3
:103F000083FD07C069E0220F331F441F551F6A95C8
:103F1000D1F7013089F481E5BA01A9010E94FE1DA3
:103F2000882321F5CE0160E072E00E94751D00E05B
:103F30008823E1F401E01AC082E5BA01A9010E94D8
:103F4000FE1D882399F4CE0160E072E00E94751D89
:103F5000882329F0015019F0C050DE4FF4CF8CE4D3
:103F600040E050E060E070E00E94FE1D2C9A8FEF70
:103F70008EBD0DB407FEFDCF8EB5002319F001E014
:103F800001C004E0802FDF91CF910F910895CF926F
:103F9000DF92EF92FF920F93CF93DF93EB016901D2
:103FA0007A01882309F05AC0002309F457C0809190
:103FB0008B0180FF02C003E052C080918B0182FF21
:103FC00002C002E04CC08091160390E083FD07C060
:103FD00079E0CC0CDD1CEE1CFF1C7A95D1F701308A
:103FE00069F488E5B701A6010E94FE1D882359F5F2
:103FF000CE016EEF0E94B61D00E022C08670907068
:10400000892B39F0402F50E060E070E087ED0E948E
:10401000FE1D89E5B701A6010E94FE1D882399F4C3
:10402000CE016CEF0E94B61D882329F0015019F0D3
:10403000C050DE4FF5CF80E090E06DEF0E94B61DDE
:10404000882309F401E02C9A8FEF8EBD0DB407FE92
:10405000FDCF8EB5002319F001E001C004E0802FF0
:10406000DF91CF910F91FF90EF90DF90CF90089567
:10407000FF920F931F93DF93CF93CDB7DEB7609777
:104080000FB6F894DEBF0FBECDBF8A01882309F0BA
:10409000C9C1643009F043C0FA018081813051F117
:1040A000813020F0823009F0BDC134C02C9882E309
:1040B000809315038FEF8EBD0DB407FEFDCF8EB537
:1040C0009FEF9EBD0DB407FEFDCF8EB58F3F21F053
:1040D000809115038823A9F72C9A8FEF8EBD0DB41C
:1040E00007FEFDCF8EB51CBC80918B018160809353
:1040F0008B0113C083E08093140380911403882301
:10410000E1F780E385B980EB84B980E58CBD81E07F
:104110008DBD03C081E0FA01818390E084C180916C
:104120008B0180FF02C093E07EC16A3009F42AC18E
:104130006B3050F4613071F16130A0F0623009F4FD
:104140008AC0633069F48DC06C3009F422C16C30D0
:1041500008F41DC16D3009F429C16E3009F43FC166
:1041600094E058C12C9882E3809315038FEF8EBDA5
:104170000DB407FEFDCF8EB59FEF9EBD0DB407FEBB
:10418000FDCF8EB58F3F09F442C18091150388237E
:10419000A1F73FC189E440E050E060E070E00E9498
:1041A000FE1D882309F035C1CE01019660E170E063
:1041B0000E94751D882309F42CC1898182958695FA
:1041C000869583707A854985813089F4872F90E0C0
:1041D0000196342F20E0820F931FA0E0B0E02AE088
:1041E000880F991FAA1FBB1F2A95D1F7C5C04295FA
:1041F000469546954370288530E0220F331F220FE5
:10420000331F240F311D2F5F3F4F8F8190E083704C
:104210009070982F8827990F990F280F391F40E029
:1042200050E08E818F706B85661F6627661F860F34
:104230008E5F7370770F870F90E0099704C0220F8D
:10424000331F441F551F8A95D2F7F801208331830D
:1042500042835383DCC080E092E0FA019183808343
:10426000D6C080911603F82E82FF31C08DEC40E05D
:1042700050E060E070E00E94FE1D882309F0C9C094
:104280008FEF8EBD0DB407FEFDCF8EB5CE0101962A
:1042900060E170E00E94751D882309F4BAC080E3D4
:1042A0009FEF9EBD0DB407FEFDCF2EB58150C9F71F
:1042B0002B8522952F7080E190E0A0E0B0E004C053
:1042C000880F991FAA1FBB1F2A95D2F755C089E4F2
:1042D00040E050E060E070E00E94FE1D882309F09D
:1042E00098C0CE01019660E170E00E94751D8823A0
:1042F00009F48FC04B858C85F1FE1BC0881F882771
:10430000881F90E00196242F30E02F733070220F29
:10431000331F820F931F2E85229526952695237095
:1043200030E02150304002C0880F991F2A95E2F7F3
:1043300021C0282F30E023703070F3E0220F331FAC
:10434000FA95E1F7829586958770280F311D2F5FCA
:104350003F4F842F90E08C77907095958795959539
:1043600087950196AC01249FC001259F900D349F35
:10437000900D1124A0E0B0E0F80180839183A28326
:10438000B38345C080911603FA01808340C089E45D
:1043900001C08AE440E050E060E070E00E94FE1D51
:1043A0008823B9F5C80160E170E02BC08AE740E0DE
:1043B00050E060E070E00E94FE1D882351F5F80196
:1043C0009FEF98012D5F3F4F9EBD0DB407FEFDCFBF
:1043D0008EB58083E217F307D1F03196F5CF8DECDF
:1043E00040E050E060E070E00E94FE1D882389F408
:1043F0008FEF8EBD0DB407FEFDCF8EB5C80160E412
:1044000070E00E94751D90E0882321F402C090E0C6
:1044100001C091E02C9A8FEF8EBD0DB407FEFDCF49
:104420008EB501C094E0892F60960FB6F894DEBF78
:104430000FBECDBFCF91DF911F910F91FF900895D7
:1044400080911403882319F0815080931403809184
:104450001503882319F081508093150310928B0166
:104460000895982F8091C00085FFFCCF9093C600DF
:1044700080E090E008958091C00087FFFCCF80919C
:10448000C60090E008959093C5008093C40088E929
:104490008093C1006093C20081E392E26BE372E219
:1044A0000E946A2A08956111239A4111249A863044
:1044B00008F0209817BC18BC6295660F660F607CE8
:1044C000626042954073642B64BD877085BD08951A
:1044D00087BD089588BD089582E080936E0078942A
:1044E000089584E080936E0078940895EEE6F0E0FD
:1044F00080818D7F80830895EEE6F0E080818B7F60
:104500008083089560E070E080E090E008951F925D
:104510000F920FB60F9211242F933F934F935F93F7
:104520006F937F938F939F93AF93BF93EF93FF937B
:104530000E942022FF91EF91BF91AF919F918F91A7
:104540007F916F915F914F913F912F910F900FBE8F
:104550000F901F9018952F923F924F925F926F92FB
:104560007F928F929F92AF92BF92CF92DF92EF9203
:10457000FF920F931F93DF93CF93CDB7DEB7E697EC
:104580000FB6F894DEBF0FBECDBF0E94570085E086
:1045900090E066E00E94432285E060E040E00E94F7
:1045A00053228AB180638AB98CE60E9468220E94F5
:1045B0006C220E94202280E00E94751E80FF10C0A5
:1045C00000D08CE891E0ADB7BEB712969C938E9365
:1045D00011970E94B62A5C9A5D980F900F90FFCFBA
:1045E0005D9A5C9880E068E173E00E94580120E5E4
:1045F00033EC47E1642E712C6C0E7D1E97EB492E37
:1046000091E0592E84E1282E81E0382E05C0C101A9
:104610000197F1F72150304021153105C1F75C9A1F
:1046200089E991E0BE016F5F7F4F0E944C1BE82E2D
:10463000C30169E971E042E10E94FA1B882371F02D
:1046400000D08AEA91E0EDB7FEB7928381830E94A1
:10465000B62A5C9A5D980F900F90FFCFEE2039F448
:1046600049815A816B817C81C3010E947E0B80E06D
:104670000E9462004C01BC0180E090E00E94FC2797
:1046800020E030EC4FE754E40E94CC2623E333E3F0
:1046900043E550E40E94D2257B018C0120E030E408
:1046A0004CE156E40E94D2255B016C0163E373E3A5
:1046B00083E590E4A80197010E9474259B01AC0159
:1046C000C601B5010E94CC260E94FC237B018C010F
:1046D00000D000D000D0EDB7FEB73196ADB7BEB771
:1046E00012965C924E9211977383628395828482B4
:1046F0000E94B62A00D0EDB7FEB73196ADB7BEB76F
:1047000012967C926E92119753824282F582E482D5
:10471000978286820E942510EDB7FEB738960FB6B5
:10472000F894FEBF0FBEEDBF81E00E9462004C0115
:10473000BC0180E090E00E94FC2720E030EC4FE7D5
:1047400054E40E94CC2623E333E343E550E40E9483
:10475000D2257B018C0120E030E44CE156E40E943C
:10476000D2255B016C0163E373E383E590E4A80168
:1047700097010E9474259B01AC01C601B5010E94FE
:10478000CC260E94FC237B018C0100D000D000D0FD
:10479000EDB7FEB731968FEC91E0ADB7BEB712968C
:1047A0009C938E931197F382E282958284820E9479
:1047B000B62A00D0EDB7FEB73196ADB7BEB71296A8
:1047C0007C926E92119789EE91E093838283F582B9
:1047D000E482978286820E942510ADB7BEB71896F4
:1047E0000FB6F894BEBF0FBEADBFC3010E94E70D68
:1047F0005C9820E533EC0BCFEF92FF920F931F9361
:104800007B018C0120E030E040E05FE40E947827EB
:1048100088238CF0C801B70120E030E040E05FE47D
:104820000E9474250E94A8279B01AC0120503040B3
:104830004040504806C0C801B7010E94A8279B010C
:10484000AC01B901CA011F910F91FF90EF9008953B
:10485000A0E0B0E0EEE2F4E20C94AE2EDC012B011D
:10486000FA019C91923008F439C1EB0188818230C1
:1048700008F433C1943069F4843009F02FC11196E3
:104880009C9111978981981709F428C1A1E0B2E0A1
:1048900025C1843009F421C18230A9F4923009F095
:1048A0001DC19A01AD0188E0EA010990AE01E9015C
:1048B00009929E018150C1F7E201898111969C9174
:1048C0008923818308C1923009F407C112962D9083
:1048D0003C901397EB018A819B811496AD90BD901B
:1048E000CD90DC901797EC80FD800E811F819101A7
:1048F000281B390BB90137FF04C066277727621BD5
:10490000730B603271050CF061C0121613066CF562
:1049100037014801062E04C09694879477946794D3
:104920000A94D2F721E030E040E050E004C0220FCA
:10493000331F441F551F6A95D2F721503040404025
:1049400050402E213F21402351232115310541059F
:10495000510521F021E030E040E050E079018A018A
:10496000E628F728082919293CC0232BD1F1260E67
:10497000371E35014601062E04C09694879477941D
:1049800067940A94D2F721E030E040E050E004C0A0
:10499000220F331F441F551F6A95D2F72150304014
:1049A000404050402A213B214C215D2121153105F9
:1049B0004105510521F021E030E040E050E059018F
:1049C0006A01A628B728C828D9280BC082159305E4
:1049D0002CF01C01AA24BB24650103C0EE24FF2493
:1049E000870111969C91D20111968C91981709F428
:1049F00045C0992339F0A80197012A193B094C09B0
:104A00005D0906C0A60195012E193F09400B510B07
:104A100057FD08C011823382228224833583468366
:104A200057831DC081E081833382228288279927A2
:104A3000DC01821B930BA40BB50B84839583A683A7
:104A4000B7830DC0220F331F441F551F24833583A6
:104A50004683578382819381019793838283248144
:104A6000358146815781DA01C9010197A109B10950
:104A70008F5F9F4FAF4FBF4328F30BC091833382AB
:104A80002282EA0CFB1C0C1D1D1DE482F5820683AC
:104A9000178383E08083248135814681578157FFC6
:104AA0001AC0C901AA2797FDA095BA2F81709070EE
:104AB000A070B0705695479537952795822B932B0C
:104AC000A42BB52B84839583A683B783828193819E
:104AD000019693838283DF0101C0D201CD01CDB75E
:104AE000DEB7E2E10C94CA2EA0E2B0E0EAE7F5E21C
:104AF0000C94BA2E69837A838B839C832D833E83A7
:104B00004F835887E9E0EE2EF12CEC0EFD1ECE010E
:104B10000196B7010E9499298E010F5E1F4FCE01A9
:104B20000596B8010E9499298A8991E089278A8B84
:104B3000C701B801AE01475E5F4F0E9428240E9462
:104B4000C428A096E6E00C94D62EA0E2B0E0EBEAF2
:104B5000F5E20C94BA2E69837A838B839C832D8330
:104B60003E834F835887F9E0EF2EF12CEC0EFD1EAB
:104B7000CE010196B7010E9499298E010F5E1F4F49
:104B8000CE010596B8010E949929C701B801AE016E
:104B9000475E5F4F0E9428240E94C428A096E6E04A
:104BA0000C94D62EA0E2B0E0E8EDF5E20C94AE2E27
:104BB00069837A838B839C832D833E834F835887BD
:104BC000CE010196BE01675F7F4F0E949929CE01F9
:104BD0000596BE016F5E7F4F0E949929998592309C
:104BE00088F089898230C8F0943019F4823051F409
:104BF00004C0843029F4923081F481E092E0C6C090
:104C0000923049F420E09A858A89981321E02A8716
:104C1000CE010996BBC0823049F420E09A858A898A
:104C2000981321E02A8BCE014196B0C02D843E849A
:104C30004F8458886D887E888F88988CEE24FF2456
:104C40008701AA24BB24650140E050E060E070E0E9
:104C5000E0E0F0E0C10181709070892BE9F0E60C92
:104C6000F71C081D191D9A01AB012A0D3B1D4C1D97
:104C70005D1D80E090E0A0E0B0E0E614F7040805D8
:104C8000190520F481E090E0A0E0B0E0BA01A901AC
:104C9000480F591F6A1F7B1FAA0CBB1CCC1CDD1CB4
:104CA00097FE08C081E090E0A0E0B0E0A82AB92A11
:104CB000CA2ADB2A3196E032F10549F0660C771CEE
:104CC000881C991C5694479437942794C3CFFA852F
:104CD000EA892B893C898B859C85280F391F2E5F9B
:104CE0003F4F17C0CA0181709070892B61F01695F3
:104CF0000795F794E79480E090E0A0E0B0E8E82A18
:104D0000F92A0A2B1B2B76956795579547952F5FA8
:104D10003F4F77FDE7CF0CC0440F551F661F771F2D
:104D200017FD4160EE0CFF1C001F111F2150304089
:104D3000403090E0590790E0690790E4790760F30C
:104D40002B8F3C8FDB01CA018F779070A070B07001
:104D500080349105A105B10561F447FD0AC0E11455
:104D6000F1040105110529F0405C5F4F6F4F7F4F43
:104D700040781A8EFE1711F081E08A8F4D8F5E8F7A
:104D80006F8F78A383E0898FCE0149960E94C42853
:104D9000A096E2E10C94CA2EA8E1B0E0E2EDF6E2C2
:104DA0000C94B62E69837A838B839C832D833E83F8
:104DB0004F835887B9E0EB2EF12CEC0EFD1ECE018F
:104DC0000196B7010E9499298E010F5E1F4FCE01F7
:104DD0000596B8010E9499292985223008F47EC0E1
:104DE0003989323010F4B8017CC08A859A898927C4
:104DF0008A87243011F0223031F4231709F06EC075
:104E000061E072E06EC0343039F41D861E861F8664
:104E1000188A1C861B8604C0323021F484E08987FE
:104E2000B7015FC02B853C858B899C89281B390B7A
:104E30003C872B87ED84FE840F851889AD88BE885A
:104E4000CF88D88CEA14FB040C051D0540F4EE0C49
:104E5000FF1C001F111F215030403C872B8720E092
:104E600030E040E050E080E090E0A0E0B0E460E0BE
:104E700070E0EA14FB040C051D0540F0282B392BCB
:104E80004A2B5B2BEA18FB080C091D09B695A79560
:104E900097958795EE0CFF1C001F111F6F5F7F4FCA
:104EA0006F31710531F7DA01C9018F779070A07009
:104EB000B07080349105A105B10561F427FD0AC0E9
:104EC000E114F1040105110529F0205C3F4F4F4F1B
:104ED0005F4F20782D873E874F87588BBE01675FD5
:104EE0007F4FCB010E94C4286896EAE00C94D22E32
:104EF000A8E1B0E0EEE7F7E20C94BA2E69837A837A
:104F00008B839C832D833E834F83588789E0E82ED3
:104F1000F12CEC0EFD1ECE010196B7010E949929DD
:104F20008E010F5E1F4FCE010596B8010E94992990
:104F30008985823040F08989823028F0C701B80124
:104F40000E94112A01C08FEF6896E6E00C94D62EDD
:104F5000ACE0B0E0EEEAF7E20C94BE2E69837A830F
:104F60008B839C83CE010196BE016B5F7F4F0E94B5
:104F700099298D81823061F1823050F1843021F4A1
:104F80008E81882351F12EC02F81388537FD20C0B6
:104F90006E812F3131051CF06623F9F023C08EE1BC
:104FA00090E0821B930B29853A854B855C8504C074
:104FB00056954795379527958A95D2F76623B1F090
:104FC00050954095309521953F4F4F4F5F4F0EC004
:104FD00020E030E040E050E009C02FEF3FEF4FEF1E
:104FE0005FE704C020E030E040E050E8B901CA01CA
:104FF0002C96E2E00C94DA2EA8E0B0E0E2E0F8E2D1
:105000000C94B62E7B018C0161157105810591050B
:1050100019F482E0898360C083E089838EE1C82E21
:10502000D12CDC82CB82ED82FE820F831887C801EF
:10503000B7010E947528FC013197F7FF3BC022277A
:1050400033272E1B3F0B57016801022E04C0D69454
:10505000C794B794A7940A94D2F740E050E060E078
:1050600070E081E090E0A0E0B0E004C0880F991FFC
:10507000AA1FBB1F2A95D2F70197A109B1098E215A
:105080009F21A023B1230097A105B10521F041E0A4
:1050900050E060E070E04A295B296C297D294D834E
:1050A0005E836F8378878EE190E08E1B9F0B9C83DD
:1050B0008B8312C0309781F00E2E04C0EE0CFF1CC3
:1050C000001F111F0A94D2F7ED82FE820F8318870A
:1050D000CE1ADF0ADC82CB821A82CE0101960E94B0
:1050E000C4282896EAE00C94D22EEF92FF920F93F8
:1050F0001F937B018C0180E0E81680E0F80681E0D8
:10510000080780E0180788F48FEFE816F10401051E
:10511000110531F028F088E090E0A0E0B0E017C081
:1051200080E090E0A0E0B0E012C080E0E81680E00F
:10513000F80680E0080781E0180728F088E190E091
:10514000A0E0B0E004C080E190E0A0E0B0E020E2A8
:1051500030E040E050E0281B390B4A0B5B0B04C0E9
:1051600016950795F794E7948A95D2F7F701E75FCC
:10517000FD4F8081281B310941095109C9011F9147
:105180000F91FF90EF900895DF92EF92FF920F93AF
:105190001F93FC01E480F58006811781D180808116
:1051A000823048F480E090E0A0E1B0E0E82AF92AFB
:1051B0000A2B1B2BA5C0843009F49FC0823021F438
:1051C000EE24FF24870105C0E114F1040105110557
:1051D00019F4E0E0F0E096C0628173819FEF6238DD
:1051E00079070CF05BC022E83FEF261B370B2A3112
:1051F00031052CF020E030E040E050E02AC0B8015A
:10520000A701022E04C076956795579547950A9495
:10521000D2F781E090E0A0E0B0E004C0880F991FD1
:10522000AA1FBB1F2A95D2F70197A109B1098E21A8
:105230009F21A023B1230097A105B10521F081E0B2
:1052400090E0A0E0B0E09A01AB01282B392B4A2B6B
:105250005B2BDA01C9018F779070A070B070803439
:105260009105A105B10539F427FF09C0205C3F4F26
:105270004F4F5F4F04C0215C3F4F4F4F5F4FE0E007
:10528000F0E02030A0E03A07A0E04A07A0E45A0787
:1052900010F0E1E0F0E079018A0127C06038710583
:1052A00064F5FB01E158FF4FD801C7018F7790707B
:1052B000A070B07080349105A105B10539F4E7FE06
:1052C0000DC080E490E0A0E0B0E004C08FE390E087
:1052D000A0E0B0E0E80EF91E0A1F1B1F17FF05C073
:1052E00016950795F794E794319687E016950795FC
:1052F000F794E7948A95D1F705C0EE24FF2487013F
:10530000EFEFF0E06E2F679566276795902F9F77F8
:10531000D794DD24D7948E2F8695492F462B582F6E
:105320005D29B701CA011F910F91FF90EF90DF90A7
:105330000895FC01DB01408151812281622F6F774A
:1053400070E0221F2227221F9381892F880F822B32
:10535000282F30E0991F9927991F11969C93119738
:1053600021153105A9F5411551056105710511F4A6
:1053700082E037C082E89FEF13969C938E9312973A
:105380009A01AB0167E0220F331F441F551F6A9536
:10539000D1F783E08C930DC0220F331F441F551F9C
:1053A00012968D919C911397019713969C938E93CF
:1053B0001297203080E0380780E0480780E45807E3
:1053C00058F314962D933D934D935C93179708953E
:1053D0002F3F310579F4411551056105710519F427
:1053E00084E08C93089564FF03C081E08C9312C025
:1053F0001C9210C02F57304013963C932E93129757
:1054000083E08C9387E0440F551F661F771F8A95B2
:10541000D1F7706414964D935D936D937C931797B9
:1054200008951F93DC01FB019C91923008F447C062
:105430008081823008F443C0943051F411961C915D
:10544000843099F58181682F70E0611B71093FC03C
:10545000843021F0923031F48230B9F18181882397
:1054600089F12DC011961C9111978230F1F0818144
:105470001817D9F412962D913C911397828193813C
:105480008217930794F028173907BCF014968D9172
:105490009D910D90BC91A02D24813581468157812D
:1054A000281739074A075B0718F4112341F00AC08F
:1054B00082179307A407B50740F4112319F061E0A0
:1054C00070E005C06FEF7FEF02C060E070E0CB01DD
:1054D0001F9108950F931F93CF93DF938C01EB01DE
:1054E000009731F46115710519F420E030E038C0FF
:1054F00081E090E06EE070E00E94A82CFC019C012D
:10550000009771F180E88383209771F0D387C28779
:1055100081E883838091460590914705892B21F48A
:10552000F0934705E093460501151105C9F0118771
:10553000008783818260838380914805909149052B
:10554000892B71F4F0934905E093480580914A0551
:1055500090914B05892B21F4F0934B05E0934A057C
:10556000C901DF91CF911F910F910895A0E0B0E0A4
:10557000ECEBFAE20C94BE2EFE013596619171912E
:105580008091480590914905AF010E94CB2A209651
:10559000E2E00C94DA2EABE0B0E0E1EDFAE20C943C
:1055A000AE2E3C012B015A01FC0117821682838129
:1055B00081FD03C06FEF7FEFC6C19AE0892E1E0107
:1055C0000894211C311CF3012381F20123FD8591F4
:1055D00023FF81912F01882309F4B2C1853239F468
:1055E00023FD859123FF81912F01853229F490E0DD
:1055F000B3010E94E32DE7CF982FFF24EE249924D6
:10560000FFE1FF15D0F09B3269F09C3228F4903214
:1056100059F0933291F40EC09D3249F0903369F401
:1056200041E024C052E0F52A84E0F82A28C098E03E
:10563000F92A25C0E0E1FE2A22C0F7FC29C0892F03
:1056400080538A3070F4F6FE05C0989C902C11248B
:10565000980E15C0E89CE02C1124E80EF0E2FF2A19
:105660000EC09E3229F4F6FC6BC140E4F42A07C058
:105670009C3619F450E8F52A02C0983649F4F20134
:1056800023FD959123FF91912F01992309F0B8CF24
:10569000892F8554833018F08052833038F444E0E9
:1056A00050E0A40EB51E5FE359830FC0933631F06E
:1056B000933779F0933509F056C020C0F501808109
:1056C000898342E050E0A40EB51E610101E010E0C4
:1056D00012C0F501C080D180F6FC03C06FEF7FEFF0
:1056E00002C0692D70E042E050E0A40EB51EC60174
:1056F0000E94D82D8C015FE7F52214C0F501C0800F
:10570000D180F6FC03C06FEF7FEF02C0692D70E01F
:1057100042E050E0A40EB51EC6010E94C62D8C01C9
:1057200050E8F52AF3FE07C01AC080E290E0B3010A
:105730000E94E32DEA948E2D90E008171907A8F334
:105740000EC0F601F7FC8591F7FE81916F0190E0A4
:10575000B3010E94E32DE110EA94015010400115BD
:10576000110579F7EAC0943611F0993669F5F7FE1C
:1057700008C0F501208131814281538184E090E0AD
:105780000AC0F501808191819C01442737FD409535
:10579000542F82E090E0A80EB91E9FE6F92257FF31
:1057A00009C050954095309521953F4F4F4F5F4F21
:1057B000E0E8FE2ACA01B901A1012AE030E00E9416
:1057C0000F2ED82ED21840C0953729F41F2D1F7EDA
:1057D0002AE030E01DC01F2D197F9F3661F0903701
:1057E00020F4983509F0ACC00FC0903739F09837E5
:1057F00009F0A6C004C028E030E00AC0106114FD22
:10580000146020E130E004C014FD166020E132E0B5
:1058100017FF08C0F501608171818281938144E0A6
:1058200050E008C0F50180819181BC0180E090E0EA
:1058300042E050E0A40EB51EA1010E940F2ED82E0A
:10584000D2188FE7F82EF122F6FE0BC05EEFF5229C
:10585000D91438F4F4FE07C0F2FC05C08FEEF8222C
:1058600002C01D2D01C0192DF4FE0DC0FE01ED0D6D
:10587000F11D8081803319F499EEF92208C01F5F71
:10588000F2FE05C003C08F2D867809F01F5F0F2D33
:10589000F3FC14C0F0FE0FC01E1510F09D2C0BC0C1
:1058A0009D2C9E0C911A1E2D06C080E290E0B30143
:1058B0000E94E32D1F5F1E15C0F304C01E1510F4D7
:1058C000E11A01C0EE2404FF0FC080E390E0B301B1
:1058D0000E94E32D02FF1DC001FD03C088E790E098
:1058E0000EC088E590E00BC0802F867891F001FF14
:1058F00002C08BE201C080E2F7FC8DE290E0B301D0
:105900000E94E32D06C080E390E0B3010E94E32DE6
:105910009A94D914C0F3DA94F101ED0DF11D808150
:1059200090E0B3010E94E32DDD20A9F706C080E2DC
:1059300090E0B3010E94E32DEA94EE20C1F743CE3C
:10594000F30166817781CB012B96E2E10C94CA2E9C
:105950000F931F93CF93DF93689F8001699F100D72
:10596000789F100D1124C8010E94C42CEC010097EF
:1059700029F060E070E0A8010E94D12DCE01DF91F6
:10598000CF911F910F910895CF93DF93BC01823087
:10599000910510F462E070E0A0914E05B0914F05C2
:1059A000ED01E0E0F0E040E050E021C08881998125
:1059B0008617970769F48A819B81309719F0938342
:1059C000828304C090934F0580934E05FE0134C03E
:1059D0006817790738F44115510519F084179507B0
:1059E00008F4AC01FE018A819B819C01E9012097AA
:1059F000E9F641155105A9F1CA01861B970B0497D9
:105A000008F4BA01E0E0F0E02AC08D919C91119772
:105A100084179507F9F46417750781F412968D9130
:105A20009C911397309719F09383828304C09093CD
:105A30004F0580934E05FD0132964CC0CA01861B6E
:105A4000970BFD01E80FF91F6193719302978D93F6
:105A50009C9340C0FD01828193819C01D9011097E4
:105A6000A1F680914C0590914D05892B41F48091D0
:105A70000B0390910C0390934D0580934C0540913E
:105A80000D0350910E034115510541F44DB75EB71A
:105A90008091090390910A03481B590B20914C05F2
:105AA00030914D05CA01821B930B8617970780F032
:105AB000AB014E5F5F4F8417950750F0420F531FA5
:105AC00050934D0540934C05F9016193719302C0C9
:105AD000E0E0F0E0CF01DF91CF910895CF93DF9325
