:100000000C942A000C9445000C9445000C94450077
:100010000C9445000C9445000C9445000C9445004C
:100020000C9445000C9445000C9445000C9445003C
:100030000C9445000C9445000C9445000C9445002C
:100040000C9445000C9445000C9445000C9445001C
:100050000C94450011241FBECFE5D8E0DEBFCDBF14
:1000600010E0A0E6B0E0E6E1F1E002C005900D92FC
:10007000A036B107D9F710E0A0E6B0E001C01D92AC
:10008000A036B107E1F70C9447000C940000CFE5CF
:10009000D8E0DEBFCDBF8FEF81BB82B3805E82BB75
:1000A00020E030E080E395E70197F1F72F5F3F4FC5
:1000B0002E313105B9F782B3805C82BB20E030E09D
:1000C00080E395E70197F1F72F5F3F4F2E31310520
:1000D000B9F782B3805482BB82B3885F82BB20E0D1
:1000E00030E080E395E70197F1F72F5F3F4F2E3126
:1000F0003105B9F782B3805C82BB20E030E080E359
:1001000095E70197F1F72F5F3F4F2E313105B9F792
:0601100082B38854C4CF45
:00000001FF
