:10F800000C94387C0C94557C0C94557C0C94557C51
:10F810000C94557C0C94557C0C94557C0C94557C24
:10F820000C94557C0C94557C0C94557C0C94557C14
:10F830000C94557C0C94557C0C94557C0C94557C04
:10F840000C94557C0C94557C0C94557C0C94557CF4
:10F850000C94557C0C94557C0C94557C0C94557CE4
:10F860000C94557C0C94557C0C94557C0C94557CD4
:10F8700011241FBECFEFD0E1DEBFCDBF11E0A0E06D
:10F88000B1E0E0EEFFEF02C005900D92A030B107AD
:10F89000D9F711E0A0E0B1E001C01D92A031B1079D
:10F8A000E1F70E94DD7C0C94EE7F0C94007C85B126
:10F8B000817085B981E085BF15BEE0910001F091AE
:10F8C00001010995089520E030E093E00CC081E04B
:10F8D0002130380719F42FEF3FEF0DC02F5F3F4F56
:10F8E000892F8A95F1F78091C00087FFF0CF809132
:10F8F000C600282F30E0C90108950F931F93CF93BE
:10F90000DF93E2E0F1E0119281E0EC30F807D9F703
:10F910000FEF1FEFC0E0D0E00E94637C97FD17C09F
:10F920008D30910579F482E091E00E94C87F8C01CE
:10F93000E2E0F1E0119281E0EC30F807D9F7C0E0A5
:10F94000D0E005C0FE01EE5FFE4F80832196189B3C
:10F95000E3CFC801DF91CF911F910F910895EF92EE
:10F96000FF920F931F93CF93DF937B018C0198013C
:10F970004427552781E56FEFA90197010E945C7E1E
:10F98000C0E0D0E0882361F08FEF0E94B07F219625
:10F9900093ECC035D907B1F7882311F081E006C098
:10F9A0008FEF0E94B07F8E3FD9F780E0DF91CF913B
:10F9B0001F910F91FF90EF9008952F923F924F92D9
:10F9C0005F926F927F928F929F92AF92BF92CF92EF
:10F9D000DF92EF92FF920F931F93DF93CF93CDB7F8
:10F9E000DEB728970FB6F894DEBF0FBECDBF04B6C2
:10F9F00003FE06C0E0910001F0910101099508C0E5
:10FA000088E10FB6F89480936000109260000FBEFA
:10FA100084E060E040E00E94A17F0E947E7F882316
:10FA200029F4E0910001F0910101099585E090E051
:10FA300066E00E94B67F0E947D7C7C0197FF05C036
:10FA4000E0910001F0910101099580E090E023E050
:10FA50000BC007B600FCFDCFF999FECFFC01209347
:10FA60005700E89580509F4F38EF8030930788F318
:10FA700090930D0180930C0133E0EE0CFF1C3A953E
:10FA8000E1F719821A821B821C821D821E821F824C
:10FA90001886B701882777FD8095982F44E050E0BD
:10FAA0009E012F5F3F4F0E94E17E84E090E0E80ED0
:10FAB000F91E0027F7FC0095102FC801B70144E09C
:10FAC00050E09E012B5F3F4F0E94E17E10920D019E
:10FAD00010920C0180E70E94C07F29813A814B81FE
:10FAE0005C812F3F31054105510521F018F000E000
:10FAF00011E001C0890128016624772420900C01BF
:10FB000030900D0107B600FCFDCF6D817E818F81A5
:10FB10009885241935094609570929833A834B8367
:10FB20005C830E94AF7C5801B694A7946101EE24D7
:10FB3000FF241AC08FEF0E94B07F082F8FEF0E9422
:10FB4000B07F982E882410E00829192991E0080137
:10FB5000F60190935700E895112422E030E0C20EA0
:10FB6000D31E0894E11CF11CEA14FB0418F3850170
:10FB7000000F111F020D131D8FEF0E94B07F8FEF3A
:10FB80000E94B07F0894A11CB11C3FEFA316B104E2
:10FB900099F390F38FEF0E94B07F8FEF0E94B07FB8
:10FBA00007B600FCFDCFF999FECF80910C01909132
:10FBB0000D0125E0FC0120935700E89507B600FCF5
:10FBC000FDCF31E130935700E89510930D0100937C
:10FBD0000C018D819E81AF81B885840D951DA61D78
:10FBE000B71D8D839E83AF83B88789819A81AB814E
:10FBF000BC810097A105B10509F06FCF84E60E9492
:10FC0000C07F0E94577C80E090E028960FB6F89461
:10FC1000DEBF0FBECDBFCF91DF911F910F91FF903F
:10FC2000EF90DF90CF90BF90AF909F908F907F909C
:10FC30006F905F904F903F902F900895F999FECF6D
:10FC400092BD81BD60BDFA9AF99A0895F999FECFE7
:10FC500092BD81BDF89A80B50895DC0120E030E0C6
:10FC600010C0FA01E20FF31FE081F999FECFC9013C
:10FC70008A0F9B1F92BD81BDE0BDFA9AF99A2F5F52
:10FC80003F4F2617370768F30895DC0120E030E086
:10FC90000FC0F999FECFC9018A0F9B1F92BD81BD8C
:10FCA000F89A80B5FA01E20FF31F80832F5F3F4F70
:10FCB0002617370770F30895CF92DF92EF92FF92E5
:10FCC0000F931F93082FC62EE42E152FD22EF32E3E
:10FCD0008FEF0E94B07F802F0E94B07F812F0E9403
:10FCE000B07F8E2D0E94B07F8F2D0E94B07F8D2D12
:10FCF0000E94B07F8C2D0E94B07F8FEF0E94B07F5A
:10FD00008FEF0E94B07F1F910F91FF90EF90DF90D7
:10FD1000CF900895CF92DF92EF92FF920F931F93AF
:10FD2000CF93DF937B018C016A019801442755270B
:10FD300088E56FEFA90197010E945C7EC0E0D0E0EA
:10FD4000882361F08FEF0E94B07F219693ECC0353D
:10FD5000D907B1F7882311F081E02AC08FEF0E9404
:10FD6000B07F8FEF0E94B07F8EEF0E94B07FC0E027
:10FD7000D0E0F601EC0FFD1F80810E94B07F21963C
:10FD800082E0C030D807A9F78FEF0E94B07F8FEFD5
:10FD90000E94B07F8FEF0E94B07F8F71853011F08D
:10FDA00082E006C08FEF0E94B07F8F3FD9F780E0DE
:10FDB000DF91CF911F910F91FF90EF90DF90CF9047
:10FDC0000895AF92BF92CF92DF92EF92FF920F937E
:10FDD0001F93CF93DF937B018C016A015901980136
:10FDE0004427552781E56FEFA90197010E945C7EAA
:10FDF000C0E0D0E0882361F08FEF0E94B07F2196B1
:10FE000093ECC035D907B1F7882311F081E024C005
:10FE10008FEF0E94B07F8E3FD9F7C0E0D0E008C0DE
:10FE20008FEF0E94B07FF501EC0FFD1F80832196BC
:10FE3000CC15DD05A8F3E60104C08FEF0E94B07F6A
:10FE4000219682E0C030D807C0F38FEF0E94B07FC8
:10FE50008FEF0E94B07F80E0DF91CF911F910F91D3
:10FE6000FF90EF90DF90CF90BF90AF900895CF922A
:10FE7000DF92EF92FF920F931F93CF93DF937B015B
:10FE80008C016A019C014427552781E56FEFA90188
:10FE900097010E945C7EC0E0D0E0882361F08FEF84
:10FEA0000E94B07F219693ECC035D907B1F7882323
:10FEB00011F081E01AC08FEF0E94B07F8E3FD9F71A
:10FEC000C0E0D0E08FEF0E94B07FF601EC0FFD1F85
:10FED0008083219682E0C030D807A1F78FEF0E947F
:10FEE000B07F8FEF0E94B07F80E0DF91CF911F91B4
:10FEF0000F91FF90EF90DF90CF9008951F932C9A71
:10FF000010E08FEF0E94B07F1F5F1A30D1F72C985E
:10FF100080E465E940E050E020E030E00E945C7E53
:10FF2000813011F080E00BC081E46FEF40E050E0E1
:10FF300020E030E00E945C7E8823B1F781E01F91D1
:10FF4000089594B1906A94B92698982F96959695AD
:10FF500091709DBD6065642B8370682B6CBD0895A6
:10FF60008EBD0DB407FEFDCF8EB508959093C500EC
:10FF70008093C40088E98093C1006093C200089513
:10FF8000982F8091C00085FFFCCF9093C600089504
:10FF9000FC0188279927E89421912032E9F3293040
:10FFA00010F02E30C8F32B3241F02D3239F4689422
:10FFB00004C00E94E67F820F911D219120532A30B8
:10FFC000C0F31EF4909581959F4F08957AE0979F16
:10FFD000902D879F802D910D11240895F894FFCFC7
:040000030000F80001
:00000001FF
