:1000000012C02CC02BC02AC029C028C027C026C0BF
:1000100025C024C023C022C021C020C01FC01EC0D4
:100020001DC01DC01BC011241FBECFE5D4E0DEBF24
:10003000CDBF10E0A0E6B0E0E6E2F1E002C005903E
:100040000D92A036B107D9F710E0A0E6B0E001C0EC
:100050001D92A436B107E1F754D063C0D1CF1F92EF
:100060000F920FB60F9211248F93F89481B1887F6D
:1000700080936100809161008036D1F584EC86BF69
:1000800006B607FEFDCF83B18093620081B1887F01
:100090008093610080916100803811F083E082BB21
:1000A00084EC86BF06B607FEFDCF83B18093630064
:1000B00081B1887F8093610080916100803811F068
:1000C00087E082BB80916200813039F480916300C7
:1000D000882311F0C19A01C0C198809162008230DA
:1000E00039F480916300882311F0C29A01C0C2984C
:1000F00085EC86BF78948F910F900FBE0F901F9064
:10010000189587B3866087BB8FEF81BB18BA12BA88
:1001100080E880B911B88AEC82B985E486BF78940A
:06012000FFCFF894FFCFB1
:00000001FF
