:100000000C9438000C9455000C9455000C94550039
:100010000C9455000C9455000C9455000C9455000C
:100020000C9455000C9455000C9455000C945500FC
:100030000C9455000C9455000C9455000C945500EC
:100040000C9455000C9455000C9455000C945500DC
:100050000C9455000C9455000C9455000C945500CC
:100060000C9455000C9455000C9455000C945500BC
:1000700011241FBECFEFD0E1DEBFCDBF11E0A0E065
:10008000B1E0E8E4F1E002C005900D92A030B107C4
:10009000D9F711E0A0E0B1E001C01D92A030B10796
:1000A000E1F70E9498000C94A2000C940000982F95
:1000B000222359F03E988091B60080648093B60068
:1000C0008091B60080628093B6006111579A411109
:1000D000569A1092B3001092B4006295660F660FA4
:1000E000607C62604295407F4073642B6093B000F7
:1000F00097709093B10008958093B3000895809312
:10010000B400089582E0809370007894089584E0AC
:100110008093700078940895E0E7F0E080818D7F0F
:1001200080830895E0E7F0E080818B7F80830895ED
:1001300020E040E061E087E00E9457008FEF80936D
:08014000B300FFCFF894FFCFDC
:00000001FF
