:100000000C9438000C9455000C9455000C94550039
:100010000C9455000C9455000C9455000C9455000C
:100020000C9455000C9455000C9455000C945500FC
:100030000C9455000C9455000C9455000C945500EC
:100040000C9455000C9455000C9455000C945500DC
:100050000C9455000C9455000C9455000C945500CC
:100060000C9455000C9455000C9455000C945500BC
:1000700011241FBECFEFD0E1DEBFCDBF11E0A0E065
:10008000B1E0EAE4F1E102C005900D92A830B107B9
:10009000D9F711E0A8E0B1E001C01D92AD30B10781
:1000A000E1F70E94C2010C94A4080C940000FB012B
:1000B00021E030E002C0220F331F8A95E2F78081F1
:1000C000822B80830895FB0121E030E002C0220FE3
:1000D000331F8A95E2F720958081822380830895DB
:1000E000FB012081332702C0359527958A95E2F7D9
:1000F000C901817090700895FB01908121E030E08A
:1001000002C0220F331F8A95E2F7922B9083E0EB17
:10011000F0E080818368808387E08093B100089558
:10012000FB01908121E030E002C0220F331F8A954D
:10013000E2F7922B9083E0EBF0E080818362808392
:1001400087E08093B1000895EF92FF921F93162FDE
:100150007901BA010E947C00B701812F0E949000B2
:100160001F91FF90EF900895E0EBF0E080818F7792
:10017000808380818F7B80830895E0EBF0E0808135
:100180008F7D808380818F7E80830895982F965AFB
:10019000953B58F0863A1CF41092080108C08B3544
:1001A00034F084EB8093080102C0909308016091C1
:1001B00008017727882777FD8095982F0E948A0568
:1001C00020E030E84BEB54E40E947C0320E030E078
:1001D00044E353E40E949A0420E030E84BE354E403
:1001E0000E944F032CE732EF40E35CE30E947C0364
:1001F0006093090170930A0180930B0190930C01A5
:100200000E94CB016093B3000895982F9C59993CAC
:1002100058F08C391CF41092080108C0853634F06F
:1002200088EC8093080102C0909308016091080156
:100230007727882777FD8095982F0E948A0520E0F0
:1002400030E84BEB54E40E947C0320E030E048E4CB
:1002500053E40E949A0420E030E84BE354E40E9407
:100260004F032CE732EF40E35CE30E947C03609392
:10027000090170930A0180930B0190930C010E9475
:10028000CB016093B3000895982F965A953B58F090
:10029000863A1CF41092080108C08B3534F084EBC8
:1002A0008093080102C090930801609108017727AC
:1002B000882777FD8095982F0E948A0520E030E8F6
:1002C0004BEB54E40E947C0320E030E044E353E431
:1002D0000E949A0420E030E84BE354E40E944F036C
:1002E0002CE732EF40E35CE30E947C03609309015A
:1002F00070930A0180930B0190930C010E94CB0133
:100300006093B4000895982F9C59993C58F08C390B
:100310001CF41092080108C0853634F088EC8093F4
:10032000080102C09093080160910801772788278F
:1003300077FD8095982F0E948A0520E030E84BEBEE
:1003400054E40E947C0320E030E048E453E40E943F
:100350009A0420E030E84BE354E40E944F032CE77A
:1003600032EF40E35CE30E947C03609309017093E9
:100370000A0180930B0190930C010E94CB016093C2
:10038000B40008956AE270E086E00E9490008AE579
:100390000E944401FFCFEF92FF920F931F937B01C6
:1003A0008C0120E030E040E05FE40E9454058823A7
:1003B0007CF020E030E040E05FE4C801B7010E943B
:1003C0001E030E94F305605070408040904804C0B6
:1003D000C801B7010E94F3051F910F91FF90EF90A4
:1003E0000895A0E0B0E0E7EFF1E00C947108FC01A3
:1003F0006A019081923008F41BC1DB018C9182303C
:1004000080F0943061F4843009F012C19181EB01E5
:100410008981981709F40CC1E0E0F1E009C184304A
:1004200011F4FB0105C1823091F4923009F000C152
:10043000EA01DF0188E00D9009928150E1F78181A6
:10044000FB0191818923E6018983F601F1C0923095
:1004500041F362807380EB018A809B80E480F580A9
:10046000068117812C813D814E815F815301A8183F
:10047000B908C501B7FCABC080970CF457C086140F
:1004800097040CF4BEC03401EE24FF24870191814F
:10049000FB018181981709F4A6C0992309F49CC037
:1004A0002E193F09400B510B57FDB0C0E6011982D0
:1004B0007B826A82F6012483358346835783E60173
:1004C0002C813D814E815F8179018A01DA01C90168
:1004D0000197A109B1098F5F9F4FAF4FBF43F8F458
:1004E000E6016A817B81A8019701220F331F441F17
:1004F000551F6150704079018A01DA01C9010197E5
:10050000A109B1098F5F9F4FAF4FBF4360F3E60171
:100510007B836A83F601248335834683578383E094
:10052000D6018C9357FD39C0F60182C0861497041A
:10053000B4F4C0E0D0E0DA01C90181709070A0701D
:10054000B0705695479537952795282B392B4A2B10
:100550005B2B2196AC16BD0671F78A0C9B1C6814A8
:1005600079040CF094CFC0E0D0E05401A618B7088D
:10057000D801C70181709070A070B0701695079572
:10058000F794E794E82AF92A0A2B1B2B2196AC163C
:10059000BD0671F76A0C7B1C7ACFDA01C901B695EA
:1005A000A795979587952170307040705070282BD3
:1005B000392B4A2B5B2BE6012C833D834E835F83D3
:1005C0008A819B8101969B838A83F60131C08827AB
:1005D00099278A199B0950CFE21AF30A040B150BCD
:1005E000A801970161CFE60199837B826A822E0D73
:1005F0003F1D401F511FF6012483358346835783D7
:100600008ECF20E030E040E050E041CF81E0E601D5
:1006100089837B826A8250954095309521953F4F22
:100620004F4F5F4FF601248335834683578347CF6F
:10063000CF01EEE0CDB7DEB70C948D08A0E2B0E0BC
:10064000E4E2F3E00C94790869837A838B839C83DA
:100650002D833E834F83588789E0E82EF12CEC0EE2
:10066000FD1EB701CE0101960E9465078E010F5E47
:100670001F4FB801CE0105960E9465078A8991E057
:1006800089278A8BAE01475E5F4FB801C7010E9480
:10069000F1010E944306E6E0A0960C949508A0E2C2
:1006A000B0E0E5E5F3E00C94790869837A838B8305
:1006B0009C832D833E834F83588799E0E92EF12C4C
:1006C000EC0EFD1EB701CE0101960E9465078E015A
:1006D0000F5E1F4FB801CE0105960E946507AE015F
:1006E000475E5F4FB801C7010E94F1010E944306B7
:1006F000E6E0A0960C949508A0E2B0E0E2E8F3E012
:100700000C946D0869837A838B839C832D833E834D
:100710004F8358878E01075F1F4FB801CE010196A6
:100720000E946507F1E1EF2EF12CEC0EFD1EB701E2
:10073000CE0105960E9465078985823078F09989F7
:10074000923040F420E09A858A89981321E02A8B20
:10075000B701E9C0843051F4923061F020E09A850D
:100760008A89981321E02A87B801DDC0943029F4E2
:10077000823041F760E071E0D6C0823079F3923088
:1007800009F32D853E854F8558898D899E89AF89CE
:10079000B88D222433242101AA24BB246501EE2430
:1007A000FF24870160E070E00DC06F5F7F4F603213
:1007B000710599F1880F991FAA1FBB1F5695479580
:1007C0003795279520FF19C0280E391E4A1E5B1E3B
:1007D000662477244301281639064A065B0628F466
:1007E000E1E06E2E712C812C912CAE0CBF1CC01E32
:1007F000D11EA60CB71CC81CD91CEE0CFF1C001F78
:10080000111FB7FFD2CFE1E06E2E712C812C912CFD
:10081000E628F72808291929C8CF8B859C852B89BC
:100820003C89820F931F02969C8F8B8F1A8E9A851C
:100830008A89981711F081E08A8FD7FE17C08B8DB7
:100840009C8DA0FE0CC0569447943794279420E0CA
:1008500030E040E050E8222A332A442A552AD69430
:10086000C794B794A79401969C8F8B8F30E0A31602
:1008700030E0B30630E0C30630E4D30618F58B8DC4
:100880009C8D0EC0220C331C441C551C019720E08B
:10089000A21620E0B20620E0C20620E4D20680F4D0
:1008A000AA0CBB1CCC1CDD1C57FEECCF31E0632E28
:1008B000712C812C912CA628B728C828D928E2CFE2
:1008C0009C8F8B8FD601C5018F779070A070B07010
:1008D00080349105A105B10551F0AD8EBE8ECF8E4D
:1008E000D8A283E0898FBE01675E7F4F1CC0A7FC42
:1008F000F4CF211431044104510479F380E490E0F1
:10090000A0E0B0E0A80EB91ECA1EDB1E80E8682E6B
:100910008FEF782E8FEF882E8FEF982EA620B7209E
:10092000C820D920DACFCB010E944306E2E1A0968D
:100930000C948908A8E1B0E0E0EAF4E00C947308B4
:1009400069837A838B839C832D833E834F8358876F
:10095000B9E08B2E912C8C0E9D1EB401CE01019618
:100960000E9465078E010F5E1F4FB801CE010596EC
:100970000E9465072985223008F46AC0398932301F
:1009800008F468C08A859A8989278A87243009F4FF
:1009900063C0223009F460C0343041F41D861E86E5
:1009A0001F86188A1C861B86B40177C0323009F472
:1009B00058C06B857C858B899C89681B790B7C87EB
:1009C0006B872D853E854F855889ED88FE880F8978
:1009D000188D2E153F054007510740F4220F331F95
:1009E000441F551F615070407C876B87AA24BB242D
:1009F000650180E090E0A0E0B0E460E070E02E15DA
:100A00003F054007510740F0A82AB92ACA2ADB2A25
:100A10002E193F09400B510BB695A79597958795D1
:100A2000220F331F441F551F6F5F7F4F6F317105BA
:100A300031F7D601C5018F779070A070B070803407
:100A40009105A105B10589F0AD86BE86CF86D88A0D
:100A5000B40123C0B80121C03217D1F760E071E0C2
:100A60001CC084E08987B40118C0A7FCEDCF211514
:100A700031054105510541F380E490E0A0E0B0E08C
:100A8000A80EB91ECA1EDB1E80E89FEFAFEFBFEFB6
:100A9000A822B922CA22DB22D7CFCB010E9443066B
:100AA000ECE068960C948F08A8E1B0E0EAE5F5E088
:100AB0000C94790869837A838B839C832D833E838E
:100AC0004F83588789E0E82EF12CEC0EFD1EB7010C
:100AD000CE0101960E9465078E010F5E1F4FB8017F
:100AE000CE0105960E9465078985823018F42FEFA4
:100AF0003FEF0BC089898230D0F3B801C7010E9453
:100B00000408282F332727FD3095C901E6E06896B1
:100B10000C949508A8E0B0E0E0E9F5E00C947C08BE
:100B20009B01AC0183E089831A8257FD51C02115D6
:100B300031054105510539F482E08983CE010196E2
:100B40000E9443064CC0EEE1F0E0FC83EB838A8117
:100B50008823C9F1203010E0310710E0410710E888
:100B60005107C9F188279927DC01821B930BA40B3D
:100B7000B50B8D839E83AF83B8872D813E814F81D6
:100B80005885203080E0380780E0480780E4580727
:100B9000A8F6EB81FC81DA01C901880F991FAA1F11
:100BA000BB1F31979C01AD01803010E0910710E030
:100BB000A10710E4B10778F3FC83EB838D839E8358
:100BC000AF83B887BBCF2D833E834F835887D5CF64
:100BD00081E08A83ACCF60E070E080E09FECE3E0EE
:100BE00028960C949808ACE0B0E0E9EFF5E00C949E
:100BF0007D0869837A838B839C83BE016B5F7F4F03
:100C0000CE0101960E9465078D81823061F08230AD
:100C100050F0843069F48E81882359F52FEF3FEF2F
:100C20004FEF5FE72AC020E030E040E050E025C011
:100C30002F81388537FDF7CF2F31310564F78EE1ED
:100C400090E0821B930B29853A854B855C8504C017
:100C500056954795379527958A95D2F78E818823A3
:100C600061F050954095309521953F4F4F4F5F4F24
:100C700004C020E030E040E050E8CA01B901E2E001
:100C80002C960C9499084F925F926F927F928F925C
:100C90009F92AF92BF92DF92EF92FF920F931F93BA
:100CA00020E030E040E050E0FC01E480F580068187
:100CB0001781D1808081823038F4D801C701A061CA
:100CC000AF77B0706FEFD9C0843009F46EC0823056
:100CD00009F471C0E114F1040105110509F46BC0B8
:100CE000828193816FEF823896070CF06AC062E8C8
:100CF0007FEF681B790B6A3171050CF080C04701EA
:100D00005801062E04C0B694A794979487940A9429
:100D1000D2F744245524320181E090E0A0E0B0E015
:100D200004C0880F991FAA1FBB1F6A95D2F70197AD
:100D3000A109B109E822F9220A231B23E114F104D5
:100D40000105110529F061E0462E512C612C712C12
:100D500085017401E428F52806291729D801C7015F
:100D60008F779070A070B07080349105A105B105A7
:100D700009F457C0D801C701CF96A11DB11D60E08D
:100D800070E08030E0E09E07E0E0AE07E0E4BE0700
:100D900010F061E070E027E0B695A79597958795EC
:100DA0002A95D1F7AF77B07068C080E090E0A0E0FE
:100DB000B0E06FEF62C080E090E0A0E0B0E060E003
:100DC0005CC0803891058CF7BC0161587F4FD80119
:100DD000C7018F779070A070B07080349105A10525
:100DE000B105A1F08FE390E0A0E0B0E0E80EF91EBD
:100DF0000A1F1B1F17FD28C0D801C701CCCF60E018
:100E000070E080E090E0A0E0B0E0CCCFE7FEF2CF71
:100E100080E490E0A0E0B0E0E80EF91E0A1F1B1F7E
:100E2000E9CFE7FC18C080E090E060E0E61660E003
:100E3000F60660E0060760E4160710F081E090E037
:100E4000BC01D801C701A7CF16950795F794E79481
:100E50006F5F7F4FD1CFD801C701805C9F4FAF4FED
:100E6000BF4F60E070E08030E0E09E07E0E0AE075A
:100E7000E0E4BE0708F48FCF8CCF282F392F9A2FAC
:100E80009F77842F8078892B962F97959927979510
:100E90008F77482F492B6695852F8078862BD7949E
:100EA000DD24D7948F77582F5D29CA01B9011F918E
:100EB0000F91FF90EF90DF90BF90AF909F908F9039
:100EC0007F906F905F904F900895FC01DB0120812F
:100ED00031819281492F4F7750E0991F9927991FAF
:100EE0008381682F660F692B881F8827881FFD0163
:100EF0008183662309F049C021153105410551055B
:100F000009F470C082E89FEFFD0193838283220F72
:100F1000331F441F551F220F331F441F551F220F1D
:100F2000331F441F551F220F331F441F551F220F0D
:100F3000331F441F551F220F331F441F551F220FFD
:100F4000331F441F551F83E08C932030F0E03F0790
:100F5000F0E04F07F0E45F0790F482E89FEF220F84
:100F6000331F441F551F0197203060E0360760E0B3
:100F7000460760E4560798F3FD0193838283FD01E1
:100F8000248335834683578308956F3F71F1862FFD
:100F900099278F579040FD019383828383E08C9340
:100FA000220F331F441F551F220F331F441F551F8D
:100FB000220F331F441F551F220F331F441F551F7D
:100FC000220F331F441F551F220F331F441F551F6D
:100FD000220F331F441F551F5064248335834683DB
:100FE0005783089582E08C930895211531054105BA
:100FF000510519F484E08C93089544FD02C01C92BD
:10100000BECF81E08C93BBCFEF92FF920F931F93E3
:10101000CF93DF93FC01DB018081823050F09C9103
:10102000923038F0843041F49430B1F081818823DB
:1010300081F461E070E04BC09430E9F18230A1F0BE
:101040009230A1F36181ED018981681791F06623E7
:1010500081F36FEF7FEF3BC0EB018981682F77272A
:101060008181681B710933C0923059F560E070E0EE
:101070002EC022813381ED018A819B8182179307E3
:1010800034F3281739079CF0E480F5800681178136
:10109000FD0124813581468157812E153F0540078A
:1010A0005107A8F2E216F30604071507F8F66623BF
:1010B00009F0BFCFCECFFB018181882309F0B9CFE2
:1010C000C8CFEB018981882309F0B3CFC2CFCB0110
:1010D000E6E0CDB7DEB70C9495082F923F924F9281
:1010E0005F926F927F928F929F92AF92BF92CF92B8
:1010F000DF92EF92FF920F931F93CF93DF93CDB7C1
:10110000DEB7CA1BDB0B0FB6F894DEBF0FBECDBF38
:1011100009942A88398848885F846E847D848C8409
:101120009B84AA84B984C884DF80EE80FD800C8112
:101130001B81AA81B981CE0FD11D0FB6F894DEBFF5
:0A1140000FBECDBFED010895FFCFF3
:08114A0000000000000000009D
:00000001FF
