:1000000012C02BC02AC029C028C027C026C025C0C6
:1000100024C023C022C021C020C01FC01EC01DC0DC
:100020001CC01BC01AC011241FBECFE5D4E0DEBF28
:10003000CDBF10E0A0E6B0E0EEEEF1E002C005902A
:100040000D92A036B107D9F710E0A0E6B0E001C0EC
:100050001D92A036B107E1F79FC0D2CF880F991F3C
:100060000197F1F70895CF93DF93009731F0EC01FA
:1000700088EE93E0F3DF2197D9F7DF91CF910895D0
:10008000CF93DF9388B3885588BB8AE590E09BBD0A
:100090008ABD99BD88BDEC01DBBDCABDD9BDC8BD57
:1000A00085E090E0E0DF2196CF3FD105A8F3CFEFC8
:1000B000D0E0DBBDCABDD9BDC8BD85E090E0D3DFCF
:1000C0002197CB35D105A8F788B3885588BB88EE32
:1000D00093E0C9DF8AE590E09BBD8ABD99BD88BDEC
:1000E000EC01DBBDCABDD9BDC8BD85E090E0BBDF7A
:1000F0002196CF3FD105A8F3CFEFD0E0DBBDCABD3D
:10010000D9BDC8BD85E090E0AEDF2197CB35D105E4
:10011000A8F718BA88B3885F88BB88B3805E88BBAD
:1001200088B3805C88BBCF3FD10548F4DBBDCABD36
:10013000D9BDC8BD85E090E096DF2196F4CFCB35E0
:10014000D10548F0DBBDCABDD9BDC8BD85E090E092
:100150008ADF2197F4CF18BA88B3805F88BB88B351
:10016000805888BBCF3FD10548F4DBBDCABDD9BD9F
:10017000C8BD85E090E077DF2196F4CFCB35D1057F
:1001800048F0DBBDCABDD9BDC8BD85E090E06BDFDE
:100190002197F4CF18BA76CFCFE5D4E0DEBFCDBF3C
:1001A0008FEF87BB81BBF89419BE81EA8FBD89E0D0
:1001B0008EBD86EC86B986B1992736E096958795EF
:1001C0003A95E1F7EC01C170D07080FDF4CF58DFB3
:1001D000CE010CC0806687B980EC86B980E490E0DF
:0E01E0003DDF3699FECF85B199270895FFCFF8
:00000001FF
