:100000000C942A000C9445000C9445000C94450077
:100010000C9445000C9445000C9445000C9445004C
:100020000C9445000C9445000C9445000C9445003C
:100030000C9445000C9445000C9445000C9445002C
:100040000C9445000C9445000C9445000C9445001C
:100050000C94450011241FBECFE5D8E0DEBFCDBF14
:1000600010E0A0E6B0E0E4E3F1E002C005900D92FC
:10007000A036B107D9F710E0A0E6B0E001C01D92AC
:10008000A036B107E1F70C9447000C940000CFE5CF
:10009000D8E0DEBFCDBF8FEF87BB51E862E434E22A
:1000A00048E158BB20E080E395E70197F1F72F5F27
:1000B0002A30C9F768BB20E080E395E70197F1F7A4
:1000C0002F5F2A30C9F738BB20E080E395E701971E
:1000D000F1F72F5F2A30C9F748BB20E080E395E7AE
:1000E0000197F1F72F5F2A30C9F748BB20E080E382
:1000F00095E70197F1F72F5F2A30C9F738BB20E069
:1001000080E395E70197F1F72F5F2A30C9F768BBC5
:1001100020E080E395E70197F1F72F5F2A30C9F7D8
:1001200058BB20E080E395E70197F1F72F5F2A3075
:04013000C9F7B7CF85
:00000001FF
