:100000000C9438000C9455000C9455000C94840406
:100010000C9455000C9455000C9455000C9455000C
:100020000C9455000C94C5030C9455000C94550089
:100030000C9455000C9455000C9455000C945500EC
:100040000C9455000C9455000C9455000C945500DC
:100050000C949C060C94D5060C9455000C945500F9
:100060000C9455000C9455000C9455000C945500BC
:1000700011241FBECFEFD0E1DEBFCDBF11E0A0E065
:10008000B1E0EEEFF6E102C005900D92AC35B1079C
:10009000D9F717E0ACE5B1E001C01D92A538B10772
:1000A000E1F70E9470000C947D0B0C94000081E03D
:1000B0000E948E0388EE93E024EF31E0F90131973E
:1000C000F1F70197D9F780E00E948E0388EE93E064
:1000D00024EF31E0F9013197F1F70197D9F708954D
:1000E000AF92BF92CF92DF92EF92FF920F931F9346
:1000F000DF93CF93CDB7DEB72E970FB6F894DEBF60
:100100000FBECDBF0E94FF0487EA94E063EC74E069
:100110000E940B0780E091E00E946C070E94A103FF
:100120000E94570081E00E94AA020E94570080E0CE
:100130000E9446020E94570088E20E9471020E94BB
:10014000570081E00E9431020E9457008CE00E941B
:100150005E020E94570082E00E948E038E010F5FB4
:100160001F4F27E0A22EB12CAC0EBD1E93E2C92E6C
:1001700091E0D92E8DE0E82E81E0F82EC8010E9492
:10018000260373C080E090E00E9441018823D1F3F0
:10019000843089F5C8010E9472010E94A20484364D
:1001A00008F063C08DB79EB70E970FB6F8949EBF48
:1001B0000FBE8DBFEDB7FEB73196ADB7BEB7129685
:1001C000FC92EE9211978981828313828A818483C3
:1001D00015828B81868317828C81808711868D8121
:1001E000828713868E81848715860E9457078DB774
:1001F0009EB70E9635C08230C1F5C5010E949701A9
:100200000E94A204843688F5ADB7BEB752970FB6E8
:10021000F894BEBF0FBEADBFEDB7FEB731961296D4
:10022000DC92CE9211978F8182831382888584839A
:1002300015828985868317828B85808711868A85BA
:10024000828713868C85848715868D858687178699
:100250008E85808B118A0E9457078DB79EB7429674
:100260000FB6F8949EBF0FBE8DBF0E949D048823D9
:1002700009F488CF0E94C3040E94E7010E94C304CE
:100280007DCF0E94C105029750F180E00E94720666
:100290008F3F910521F581E00E947206833439F485
:1002A0000E94C10520E00897D8F021E019C08D34E4
:1002B00031F40E94C1050A9790F022E011C08E34FB
:1002C00031F40E94C1050B9750F023E009C083353B
:1002D00031F40E94C105089710F024E001C020E02D
:1002E000822F0895CF93DF93EC0180E090E00E948D
:1002F0004101843011F080E017C00E941C060E946A
:100300001C060E941C0688830E941C0689830E948A
:100310001C068A830E941C068B830E941C068C8309
:100320000E941C068D8381E0DF91CF910895CF93C9
:10033000DF93EC0180E090E00E944101823011F0F7
:1003400080E01DC00E941C060E941C060E941C0624
:1003500088830E941C0689830E941C068A830E944F
:100360001C068C830E941C068B830E941C068D83B6
:100370000E941C068E830E941C068F8381E0DF9101
:10038000CF910895CF93DF93EC0180E090E00E943D
:100390004101813011F080E017C00E941C060E94CC
:1003A0001C060E941C0688830E941C068A830E94E9
:1003B0001C0689830E941C068B830E941C068C836A
:1003C0000E941C068D8381E0DF91CF91089580917A
:1003D0005C018F7780935C018DE00E94C70501C0AE
:1003E00000000E941C068A33D9F70895EF92FF920D
:1003F0000F931F93182F062FF42EE22E83E50E94F1
:10040000C70587E50E94C70584E00E94C705812FC4
:100410000E94C705802F0E94C7058F2D0E94C70527
:100420008E2D0E94C7051F910F91FF90EF900895A8
:10043000EF92FF920F931F93162F042F79010E94C2
:10044000C705812F0E94C705802F0E94C705C701DD
:10045000602F70E00E94ED051F910F91FF90EF90CB
:10046000089510926D01882319F081E080936D0149
:1004700083E56DE441E02DE631E00E94180201C001
:1004800000000E941C068A33D9F7089593E19093E7
:100490006D01882311F480E201C081E280936E0136
:1004A00083E462E542E02DE631E00E94180201C0DB
:1004B00000000E941C068A33D9F7089591E19093B9
:1004C0006D0180936E0183E462E542E02DE631E048
:1004D0000E94180201C000000E941C068A33D9F74E
:1004E000089592E190936D0180936E0183E462E53B
:1004F00042E02DE631E00E94180201C000000E9497
:100500001C068A33D9F7089596E090936D01809385
:100510006E0183E462E542E02DE631E00E941802BC
:1005200001C000000E941C068A33D9F7089595E0A7
:1005300090936D0180936E0183E462E542E02DE6C5
:1005400031E00E94180201C000000E941C068A339C
:10055000D9F7089590915C01882311F0906201C051
:100560009F7D90935C0180915C0190E025E09695E1
:1005700087952A95E1F7817080936D018DE46DE494
:1005800041E02DE631E00E94180201C000000E9407
:100590001C068A33D9F7089590915C01882311F0E5
:1005A000906401C09F7B90935C0180915C0190E01E
:1005B00036E0969587953A95E1F7817080936D01C5
:1005C00080E56DE441E02DE631E00E94180201C0B3
:1005D00000000E941C068A33D9F70895CF92DF925B
:1005E000EF92FF920F931F93182FF62ED42EC22E48
:1005F00080915C0186FF03C080E00E94CC02809164
:100600005C01806880935C0184E50E94C70583E4F7
:100610000E94C70586E00E94C705812F0E94C7057A
:100620008F2D0E94C7058D2D0E94C7058C2D0E941D
:10063000C705802F0E94C7058E2D0E94C7051F91F8
:100640000F91FF90EF90DF90CF900895CF93DF93BD
:10065000EC0180915C0186FF03C080E00E94CC0227
:1006600080915C01806880935C0184E567E540E0EF
:1006700020E030E00E94180201C00000CE010E947C
:1006800072018823D1F3DF91CF91089580915C01AD
:1006900086FF03C080E00E94CC0280915C018068EC
:1006A00080935C0187E46DE440E020E030E00E944C
:1006B00018020895CF93DF93EC0180915C0186FDD1
:1006C00003C081E00E94CC0287E46DE440E020E0BA
:1006D00030E00E94180201C00000CE010E947201A9
:1006E0008823D1F301C000000E941C068A33D9F789
:1006F000DF91CF910895813808F080E880936D01F3
:1007000083E561E341E02DE631E00E94180201C07B
:1007100000000E941C068A33D9F70895833008F040
:1007200082E080936D018CE461E341E02DE631E0ED
:100730000E94180201C000000E941C068A33D9F7EB
:10074000089580E290E066E00E948F0610925C01BE
:100750008BE491E00E94090688EE93E024EF31E0FB
:10076000F9013197F1F70197D9F78FE491E00E94F1
:10077000090688EE93E024EF31E0F9013197F1F7B3
:100780000197D9F70E947D0508951F920F920FB629
:100790000F9211242F933F938F939F93EF93FF9387
:1007A00080915D0180FF0BC080915D018E7F809301
:1007B0005D0180915D01826080935D019AC08091AE
:1007C0005D0181FF39C080915E01883088F41A9BF9
:1007D00058C080915F0190915E0121E030E002C03D
:1007E000220F331F9A95E2F7822B80935F0149C055
:1007F000EA9AE29A80915D018D7F80935D018091FC
:1008000062019091630101969170909363018093CE
:100810006201E0916201F091630180915F01E15911
:10082000FE4F8083809164019091650101969093C1
:1008300065018093640125C080915D0182FF27C01E
:1008400080915E01883070F48091660120915E0194
:1008500090E002C0959587952A95E2F780FD06C045
:100860002B980FC080915E01883011F42B9A09C03B
:1008700080915E01803128F080915D018B7F8093B3
:100880005D0180915E018F5F80935E0132C0809137
:100890006B0190916C01892B51F11092B200809103
:1008A000670190916801019691709093680180931F
:1008B000670180916B0190916C01019790936C019D
:1008C00080936B01E0916701F0916801E159FC4F61
:1008D00080818093660110925E01EA9880915D01AB
:1008E000846080935D012B981092B20002C0EA9A56
:1008F000E29AFF91EF919F918F913F912F910F90ED
:100900000FBE0F901F9018951F920F920FB60F9267
:1009100011248F9384E18093B200EA9880915D0165
:10092000816080935D0110925F0110925E018F9152
:100930000F900FBE0F901F901895809164019091B9
:100940006501089580916B0190916C01089520914B
:10095000690130916A012F5F3F4F317030936A0116
:1009600020936901E0916901F0916A01E159FC4F1E
:10097000808380916B0190916C01019690936C0142
:1009800080936B0108958091640190916501892B9A
:10099000D1F38091600190916101019691709093E3
:1009A00061018093600180916401909165010197DC
:1009B0009093650180936401E0916001F091610181
:1009C000E159FE4F80810895AC012091640130917E
:1009D000650101962817390718F42FEF3FEF0DC076
:1009E000E0916001F09161013196E40FF51FF17023
:1009F000E159FE4F8081282F30E0C90108951F93EF
:100A000088E084B922982B9A12E01093B00084E019
:100A10008093B10080E18093B30082E00E942605BC
:100A2000EA9A1093700078941F910895E9E6F0E037
:100A300090818370892B80830895E9E6F0E09081AE
:100A4000880F880F8C70982B90830895E9E6F0E06A
:100A5000908182958073982B9083089580936B008A
:100A6000089580936C00089580936D00089580939D
:100A700073000895E89A78940895E99A789408950F
:100A8000EA9A78940895E8E6F0E0808181608083B6
:100A900078940895E8E6F0E080818260808378941D
:100AA0000895E8E6F0E0808184608083789408957A
:100AB000E8E6F0E080818860808378940895E89883
:100AC0000895E9980895EA980895E8E6F0E08081AD
:100AD0008E6F80830895E8E6F0E080818D6F8083DB
:100AE0000895E8E6F0E080818B7F80830895E8E652
:100AF000F0E08081877F80830895109274071092C0
:100B00007307809173079091740790937207809395
:100B10007107809171079091720790937A07809383
:100B2000790710927607109275078091750790915A
:100B30007607909378078093770780917707909155
:100B400078079093700780936F07089580917907D5
:100B500090917A0720E0892B09F421E0822F0895F3
:100B600080917107909172072091730730917407FB
:100B700040E0019690708217930709F441E0842FBA
:100B800008952091790730917A07C9010895482F77
:100B900020917707309178072F5F3F4F3070809119
:100BA00075079091760728173907C9F380916F0769
:100BB0009091700701969093700780936F07F901E9
:100BC000E159F94F4083309378072093770780915C
:100BD000C10080628093C1000895EF92FF920F934D
:100BE0001F93CF93DF937C018B01C0E0D0E007C05F
:100BF000F701EC0FFD1F80810E94C7052196C017E9
:100C0000D107B0F3DF91CF911F910F91FF90EF903B
:100C100008951F93CF93DF93EC0110E003C00E946F
:100C2000C7051F5FFE01E10FF11D80818823B9F721
:100C3000DF91CF911F9108958091790790917A0764
:100C4000892BD1F3E0917307F09174073196F0701E
:100C5000F0937407E09373078091790790917A0776
:100C6000019790937A0780937907E159FA4F808131
:100C70000895EF92FF920F931F93CF93DF937C0120
:100C8000C0E0D0E0062F10E007C00E941C06F7016C
:100C9000EC0FFD1F80832196C017D107B0F3DF91C1
:100CA000CF911F910F91FF90EF900895FF920F93B6
:100CB0001F93CF93DF93182F092FF62E0E941C0647
:100CC000482F212F302FC901EC0104C049930E9405
:100CD0001C06482F4F15D1F7DF91CF911F910F912F
:100CE000FF9008952091790730917A07482F50E0BE
:100CF000CA0101962817390718F42FEF3FEF0DC0EE
:100D0000E0917307F09174073196E40FF51FF070CE
:100D1000E159FA4F8081282F30E0C901089590935E
:100D2000C5008093C40088E98093C1006093C2002D
:100D30000E947D05789408951F920F920FB60F922E
:100D400011242F933F934F938F939F93EF93FF9390
:100D500020917107309172072F5F3F4F30704091A3
:100D6000C60080917307909174072817390789F09E
:100D70008091790790917A07019690937A078093F2
:100D80007907F901E159FA4F4083309372072093B4
:100D90007107FF91EF919F918F914F913F912F910B
:100DA0000F900FBE0F901F9018951F920F920FB6C5
:100DB0000F9211248F939F93EF93FF9380916F076E
:100DC00090917007892B31F48091C1008F7D8093C1
:100DD000C10018C0E0917507F09176073196F07068
:100DE000F0937607E093750780916F0790917007F5
:100DF00001979093700780936F07E159F94F8081B5
:100E00008093C600FF91EF919F918F910F900FBE3D
:100E10000F901F9018950F931F93CF93DF938C0122
:100E2000EB01009731F46115710519F420E030E011
:100E300038C081E090E06EE070E00E947E09FC0125
:100E40009C01009771F180E88383209771F0D3872C
:100E5000C28781E8838380917B0790917C07892BEF
:100E600021F4F0937C07E0937B0701151105C9F08D
:100E70001187008783818260838380917D079091B1
:100E80007E07892B71F4F0937E07E0937D078091B4
:100E90007F0790918007892B21F4F0938007E093DE
:100EA0007F07C901DF91CF911F910F910895A0E0B5
:100EB000B0E0EDE5F7E00C94560BFE01359661913C
:100EC000719180917D0790917E07AF010E94A107EB
:100ED0002096E2E00C94720B0F931F93CF93DF9355
:100EE0008C01E0917D07F0917E07838181FF21C015
:100EF000C0E0D0E00DC0E0917D07F0917E07208535
:100F00003185BF01F9010995892B11F0CFEFDFEF92
:100F1000F80181918F01882371F7E0917D07F091AD
:100F20007E07208531858AE0BF01F9010995892B6B
:100F300011F0CFEFDFEFCE01DF91CF911F910F9135
:100F40000895ABE0B0E0E7EAF7E00C94460B3C0113
:100F50002B015A01FC0117821682838181FD03C097
:100F60006FEF7FEFC6C19AE0892E1E010894211C05
:100F7000311CF3012381F20123FD859123FF81912F
:100F80002F01882309F4B2C1853239F423FD8591FC
:100F900023FF81912F01853229F490E0B3010E9453
:100FA000BC0AE7CF982FFF24EE249924FFE1FF1518
:100FB000D0F09B3269F09C3228F4903259F0933291
:100FC00091F40EC09D3249F0903369F441E024C0A1
:100FD00052E0F52A84E0F82A28C098E0F92A25C0D2
:100FE000E0E1FE2A22C0F7FC29C0892F80538A3015
:100FF00070F4F6FE05C0989C902C1124980E15C034
:10100000E89CE02C1124E80EF0E2FF2A0EC09E328C
:1010100029F4F6FC6BC140E4F42A07C09C3619F4AD
:1010200050E8F52A02C0983649F4F20123FD959163
:1010300023FF91912F01992309F0B8CF892F85546F
:10104000833018F08052833038F444E050E0A40E2E
:10105000B51E5FE359830FC0933631F0933779F0B3
:10106000933509F056C020C0F5018081898342E0A4
:1010700050E0A40EB51E610101E010E012C0F501C0
:10108000C080D180F6FC03C06FEF7FEF02C0692DF6
:1010900070E042E050E0A40EB51EC6010E94B10A05
:1010A0008C015FE7F52214C0F501C080D180F6FC09
:1010B00003C06FEF7FEF02C0692D70E042E050E0A7
:1010C000A40EB51EC6010E949F0A8C0150E8F52AA5
:1010D000F3FE07C01AC080E290E0B3010E94BC0A90
:1010E000EA948E2D90E008171907A8F30EC0F601B8
:1010F000F7FC8591F7FE81916F0190E0B3010E94AA
:10110000BC0AE110EA94015010400115110579F76D
:10111000EAC0943611F0993669F5F7FE08C0F5017A
:10112000208131814281538184E090E00AC0F50141
:10113000808191819C01442737FD4095542F82E0A6
:1011400090E0A80EB91E9FE6F92257FF09C05095FE
:101150004095309521953F4F4F4F5F4FE0E8FE2A75
:10116000CA01B901A1012AE030E00E94E80AD82EA4
:10117000D21840C0953729F41F2D1F7E2AE030E099
:101180001DC01F2D197F9F3661F0903720F49835D0
:1011900009F0ACC00FC0903739F0983709F0A6C0FD
:1011A00004C028E030E00AC0106114FD146020E1A2
:1011B00030E004C014FD166020E132E017FF08C0E3
:1011C000F501608171818281938144E050E008C023
:1011D000F50180819181BC0180E090E042E050E027
:1011E000A40EB51EA1010E94E80AD82ED2188FE7DE
:1011F000F82EF122F6FE0BC05EEFF522D91438F47A
:10120000F4FE07C0F2FC05C08FEEF82202C01D2DCF
:1012100001C0192DF4FE0DC0FE01ED0DF11D808100
:10122000803319F499EEF92208C01F5FF2FE05C061
:1012300003C08F2D867809F01F5F0F2DF3FC14C0BB
:10124000F0FE0FC01E1510F09D2C0BC09D2C9E0CA7
:10125000911A1E2D06C080E290E0B3010E94BC0AE4
:101260001F5F1E15C0F304C01E1510F4E11A01C063
:10127000EE2404FF0FC080E390E0B3010E94BC0A9B
:1012800002FF1DC001FD03C088E790E00EC088E5A5
:1012900090E00BC0802F867891F001FF02C08BE2B6
:1012A00001C080E2F7FC8DE290E0B3010E94BC0A2D
:1012B00006C080E390E0B3010E94BC0A9A94D9145E
:1012C000C0F3DA94F101ED0DF11D808190E0B301DE
:1012D0000E94BC0ADD20A9F706C080E290E0B301BD
:1012E0000E94BC0AEA94EE20C1F743CEF301668166
:1012F0007781CB012B96E2E10C94620B0F931F9345
:10130000CF93DF93689F8001699F100D789F100D28
:101310001124C8010E949A09EC01009729F060E0AD
:1013200070E0A8010E94AA0ACE01DF91CF911F911F
:101330000F910895CF93DF93BC018230910510F493
:1013400062E070E0A0918307B0918407ED01E0E0D6
:10135000F0E040E050E021C088819981861797072E
:1013600069F48A819B81309719F09383828304C04A
:101370009093840780938307FE0134C06817790730
:1013800038F44115510519F08417950708F4AC019C
:10139000FE018A819B819C01E9012097E9F64115B4
:1013A0005105A9F1CA01861B970B049708F4BA01ED
:1013B000E0E0F0E02AC08D919C9111978417950789
:1013C000F9F46417750781F412968D919C91139727
:1013D000309719F09383828304C09093840780939D
:1013E0008307FD0132964FC0CA01861B970BFD0192
:1013F000E80FF91F6193719302978D939C9343C0FB
:10140000FD01828193819C01D9011097A1F6809101
:10141000810790918207892B41F480915701909127
:101420005801909382078093810740915901509110
:101430005A014115510541F44DB75EB780915501F0
:1014400090915601481B590B2091810730918207DA
:1014500024173507B0F4CA01821B930B8617970730
:1014600080F0AB014E5F5F4F8417950750F0420F3D
:10147000531F5093820740938107F9016193719341
:1014800002C0E0E0F0E0CF01DF91CF910895CF936B
:10149000DF93009709F450C0EC0122971B821A8257
:1014A000A0918307B0918407109709F140E050E0C4
:1014B000AC17BD0708F1BB83AA83FE0121913191CE
:1014C000E20FF31FAE17BF0779F48D919C9111972E
:1014D000280F391F2E5F3F4F3983288312968D9135
:1014E0009C9113979B838A834115510571F4D09386
:1014F0008407C093830720C012968D919C91139707
:10150000AD01009711F0DC01D3CFFA01D383C28380
:1015100021913191E20FF31FCE17DF0769F4888123
:101520009981280F391F2E5F3F4FFA0131832083A5
:101530008A819B8193838283DF91CF910895FC01FF
:101540000590615070400110D8F7809590958E0FEE
:101550009F1F0895DC0101C06D9341505040E0F79A
:101560000895FC016150704001900110D8F78095FA
:1015700090958E0F9F1F08950F931F93CF93DF9326
:101580008C01EB018B8181FF1BC082FF0DC02E817E
:101590003F818C819D812817390764F4E881F981A6
:1015A0000193F983E88306C0E885F985802F0995C2
:1015B000892B31F48E819F8101969F838E8302C097
:1015C0000FEF1FEFC801DF91CF911F910F91089589
:1015D000FA01AA27283051F1203181F1E8946F9364
:1015E0006E7F6E5F7F4F8F4F9F4FAF4FB1E03ED00A
:1015F000B4E03CD0670F781F891F9A1FA11D680FA8
:10160000791F8A1F911DA11D6A0F711D811D911DDA
:10161000A11D20D009F468943F912AE0269F11244F
:101620003019305D3193DEF6CF010895462F4770B3
:10163000405D4193B3E00FD0C9F7F6CF462F4F700E
:10164000405D4A3318F0495D31FD4052419302D06C
:10165000A9F7EACFB4E0A695979587957795679512
:10166000BA95C9F700976105710508959B01AC0112
:101670000A2E06945795479537952795BA95C9F739
:10168000620F731F841F951FA01D08952F923F9214
:101690004F925F926F927F928F929F92AF92BF9282
:1016A000CF92DF92EF92FF920F931F93CF93DF932E
:1016B000CDB7DEB7CA1BDB0B0FB6F894DEBF0FBE8B
:1016C000CDBF09942A88398848885F846E847D84D8
:1016D0008C849B84AA84B984C884DF80EE80FD80DA
:1016E0000C811B81AA81B981CE0FD11D0FB6F89450
:0E16F000DEBF0FBECDBFED010895F894FFCF11
:1016FE00434D5563616D2044656D6F0D005320257C
:10170E0075202575202575202575202575202575B4
:10171E000D0A004D202825752C2025752920287BA3
:10172E0025752C2025757D2C207B25752C20257567
:10173E007D292025752025750D0A0052530D005266
:0C174E004D20370D002000850700000032
:00000001FF
