:1000000019C032C031C030C02FC02EC02DC02CC08E
:100010002BC02AC029C028C027C026C025C024C0A4
:1000200023C022C021C020C01FC01EC01DC01CC0D4
:100030001BC01AC011241FBECFEFD2E0DEBFCDBF60
:1000400011E0A0E0B1E0E6E4F1E002C005900D921D
:10005000A030B107D9F711E0A0E0B1E001C01D92D6
:10006000A030B107E1F701C0CBCF8FEF84B964D0E6
:100070008FEF90E05CD08FEF90E054D020E030E044
:10008000E0E3F5E7CF010197F1F72F5F3F4F24360B
:100090003105C1F780E890E04AD080E890E042D096
:1000A00080E090E0089581EA8093800089E0809369
:1000B0008100089582EA8093800089E08093810026
:1000C000089583EA8093800089E0809381000895F9
:1000D0009093890080938800089590938B0080937B
:1000E0008A00089580938800892F992781708093D2
:1000F0008900089580938A00892F992781708093C1
:100100008B00089580938800892F992783708093AE
:100110008900089580938800892F992783708093A0
:100120008B00089590938B0080938A00089590939C
:10013000890080938800089581EA8093800089E097
:0601400080938100089588
:00000001FF
