:1000000063C0EAC7EAC77AC079C078C077C076C053
:10001000E5C774C073C0A8C571C070C06FC06EC0A2
:100020006DC013C66BC02AC693C692C691C690C651
:100030008FC68EC68DC622C68BC68AC689C688C69E
:1000400087C686C685C62AC683C682C681C680C6BE
:100050007FC67EC67DC625C67BC67AC679C678C6EB
:1000600077C676C675C625C673C672C671C670C613
:100070006FC66EC66DC664C66BC66AC669C668C6FC
:1000800067C666C665C664C663C662C661C660C624
:100090005FC65EC65DC623C65BC65AC659C658C68D
:1000A00057C656C655C6FDC553C652C651C650C6DC
:1000B0004FC64EC64DC61FC64BC64AC649C648C6E1
:1000C00047C646C645C636C611241FBECFE5D4E096
:1000D000DEBFCDBF10E0A0E6B0E0EEE9F0E102C087
:1000E00005900D92A037B107D9F712E0A0E7B0E074
:1000F00001C01D92A43EB107E1F731C076C78F9AC7
:100100008F9A8A98979890EF87B3892387BB87B394
:10011000892B87BB84B3892384BB8EB5887F8EBD32
:1001200085B78C6085BF85B7836085BF8BB78064DA
:100130008BBF86E083BF85B78F7885BF85B7806822
:1001400085BF80E093E020E3FC0111922A95E9F756
:1001500040E350E061E070E07DD708950895CFE579
:10016000D4E0DEBFCDBFAAD6F1D42CD5C8DF7894B9
:10017000FAD594D27FD088EE93E065D603D080E0A4
:1001800090E08CC7CF93809172008823B9F080FFF4
:1001900009C0F894809172008E7F809372007894E9
:1001A000F8D0ACD28091720081FF08C0F8948091A1
:1001B00072008D7F809372007894B9D09091700016
:1001C000809171009817F9F232D0C82F99278031A9
:1001D000910511F1813191057CF48230910509F18D
:1001E000833091051CF40197D1F0CDCF8430910577
:1001F000C1F00897B1F0C7CF8038910591F08138F0
:1002000091051CF4809769F0BECF8138910549F0C3
:100210008039910549F0B7CF8C2F33D005C08C2F92
:1002200058D28C2F2ED0AFCF8C2F53D2ACCFF89486
:10023000209171008CE692E0FC01E20FF11D9081AB
:10024000822F8F5F8770809371007894892F992710
:100250000895382FF894209170008CE692E0FC010C
:10026000E20FF11D3083822F8F5F877080937000C3
:100270007894089580E4E8E7F0E011928A95E9F730
:10028000089599278430910551F18530910534F412
:100290008130910531F1029771F008958038910510
:1002A000C1F0813891051CF48097B9F00895813828
:1002B0009105F1F0089561E081E166D56AD588EE97
:1002C00093E0C1D51092730082E0809374002FD028
:1002D000089581E08093740002C018D108950CD075
:1002E000089580917400882329F084E0B2DF089596
:1002F0001092740008950895809174008130A9F4DB
:1003000010927700809175008093760010927500AE
:1003100080E4E8E7F0E011928A95E9F7829BFECF4E
:1003200060E073E08CEB91E0F0D508950895809142
:100330007400823011F580917300880F90EBECEB24
:10034000F1E011929A95E9F790EBECE0F1E011926F
:100350009A95E9F7829BFECF8299FECF882339F0E8
:10036000849BFECF81508499FECF8823C9F76CE02F
:1003700071E08CEB91E010D608958091740081308B
:1003800039F48499FECF60E073E08CEB91E0BDD549
:100390000895DF92EF92FF920F931F93CF93DF9315
:1003A000CDB7DEB721970FB6F894DEBF0FBECDBF35
:1003B000009160001091610080917400823009F01A
:1003C00054C08BE0CDD380917300CAD3DD242D2D92
:1003D00033270F2EFCEBEF2EF1E0FF2EF02DE20E77
:1003E000F31EF7018081898389818F7089838981D8
:1003F0008295807F89838901045F1E4FF801808187
:10040000982F9F708981892B89838981A9D3F801CD
:100410008181898389818F70898389818295807F99
:100420008983F7018181982F9F708981892B898326
:10043000898196D3F2E0DF0E4FEA4D1540F68FE04A
:100440008FD3809173008F5F80937300883408F49A
:100450004AC0109273001092740089B78B7F89BFD5
:1004600060E081E191D495D443C0809174008130E3
:1004700009F03EC0A1D080917700992787709070D5
:10048000079711F5DD24F80187818130B9F4868161
:10049000282F33278481A901481B51094330510576
:1004A0006CF4809177009927821B930B039734F0AB
:1004B000178280917500815080937500085F1F4FEF
:1004C000D39457E05D15F8F6809177008F5F8093A5
:1004D0007700803941F480E2BCDE89B78B7F89BF29
:1004E0001092770005C08091720082608093720044
:1004F00021960FB6F894DEBF0FBECDBFDF91CF912E
:100500001F910F91FF90EF90DF900895DF92EF928F
:10051000FF920F931F93CF93DF93809175008823F1
:1005200009F440C08AE001D3C0916000D09161001D
:1005300080917500FAD2DD248F81813061F580E0F1
:1005400098819038D9F0903411F481E017C090323E
:1005500011F482E013C0903111F483E00FC09830A1
:1005600011F484E00BC0943011F485E007C09230A0
:1005700011F486E003C0913009F487E01B810C81FF
:10058000FD80EE80D2D2812FD0D2802FCED28F2D7F
:10059000CCD28E2DCAD22896D39487E08D1560F6E2
:1005A0008FEFC3D284E055DEDF91CF911F910F9181
:1005B000FF90EF90DF9008951F93CF93ACEBB1E0E5
:1005C00060E0C62F71E010E05D91C70F7D91670F6D
:1005D000552309F45DC0743008F45AC0E0916000FE
:1005E000F0916100412F8081581751F5878181304A
:1005F00039F58681282F3327809177009927019735
:1006000028173907E9F481819281C81710F09C17E7
:1006100040F4681710F0961720F48C1788F06917CB
:1006200078F0C18362838381C81708F4C38385810E
:10063000861708F4658380917700868311E004C0F3
:1006400038964F5F483078F2112311F5809175008C
:100650008830F0F4E0916000F0916100412F8781D3
:10066000882321F038964F5F4830C8F35083C18308
:100670006283C38380917700848365838091770050
:10068000868381E08783809175008F5F80937500FA
:10069000603B08F498CFCF911F9108951092BF004E
:1006A0001092C0001092C1001092C20080E4E3ECEE
:1006B000F0E011928A95E9F780E4E4E9F2E0119222
:1006C0008A95E9F780E2E4E7F2E011928A95E9F78A
:1006D000089599278031910551F0813191051CF4DD
:1006E000019739F008958039910529F0089506D0D1
:1006F00008950ED00895E6D1089508959091BA0016
:100700008091BB00981711F0FED12AD20895089568
:10071000CF939091B8008091B900981709F46FC0F9
:10072000C9E0DFD1382F8D3029F58091BE008823B4
:1007300011F42CD106C002D18091BE008F5F80934E
:10074000BE0084E690E07FD38091620088508230C2
:1007500020F484D180E97DDD04C077D180E979DDA2
:1007600051D01092BE0080E4E3ECF0E011928A9543
:10077000E9F73EC08032D9F48091BE00882311F49D
:1007800005D10FC08091BE00992701968034910554
:100790003CF01092BC001092BD001092BE0026C02A
:1007A000CDD08091BE008F5F8093BE0021C0815468
:1007B0008A3118F08F5E8A30C8F42091BD00822FF4
:1007C0009927FC01E154FF4F30838091BC00982FA2
:1007D0009F5F9093BC00822F8F5F8093BD00943009
:1007E00038F0C09362001092BD0002C0C093620056
:1007F0009091B8008091B900981709F092CFE894D1
:10080000CF910895DF92EF92FF920F931F93CF93B2
:10081000DF93EE2480916200813009F487C0882341
:1008200069F4C3E6D0E080916300882309F47EC0B8
:1008300089917BD188818823D9F778C08091620023
:10084000873011F48BDC72C080916200833029F410
:1008500084E690E0F8D282E028C080916200823085
:10086000B1F4FF24F3948091BE00F81670F48F2D3C
:100870009927FC01ED53FF4F6181808185D282E091
:10088000F80E8091BE00F81690F383D24FC080918D
:100890006200843029F484E690E0D5D280E805C077
:1008A00080916200853019F481E8D3DC3FC08091EB
:1008B00062008630D9F5FF248091BE00F816B0F5AD
:1008C0008F2D99278C0100501D4FFC01ED53FF4FD8
:1008D0002181F80120830196B5D3982FF8018081FA
:1008E0009817F9F0DD24F2E0FE15D0F08F2D99274E
:1008F0008C0100501D4FEC012196F8016081CE0162
:10090000BAD3E394CE019ED3982FF8018081981733
:1009100011F4DD24D394DD2019F4F2E0FE1568F71C
:10092000EE24F3948091BE00F81650F2DF91CF913F
:100930001F910F91FF90EF90DF9008958FEB90E063
:1009400055D3AC018F3F910571F068F089E0809339
:1009500062002091BE0083EC90E0FC01E20FF11DEB
:100960008FEF808308C08091BE0023EC30E0F90156
:10097000E80FF11D408383E0EFEBF0E011928A95E0
:10098000E9F71092BD001092BC0008958091BF005D
:10099000803531F48091C000873411F481E048C083
:1009A0008091BF00873439F48091C000863519F4F6
:1009B000109262003FC08091BF00843431F4809176
:1009C000C000863411F483E033C08091BF008334CB
:1009D00031F48091C000823511F482E029C0809109
:1009E000BF00853431F48091C000843511F484E077
:1009F0001FC08091BF00833531F48091C0008D34D9
:100A000011F486E015C08091BF00843431F48091E8
:100A1000C000843511F485E00BC08091BF008235A1
:100A200031F48091C000833511F487E001C089E082
:100A30008093620083E0EFEBF0E011928A95E9F792
:100A40001092BD001092BC00089581E46ED083E442
:100A50006CD08BE46AD08DE068D008958EE465D0C8
:100A600083E463D08BE461D08DE05FD00895DC0136
:100A70006623A9F0F89461506F3F81F024E932E0D9
:100A80009091BA00F901E90FF11D8D918083892FB2
:100A90008F5F8F738093BA00615090F778940895B8
:100AA0000F931F93CF938C01C62FC150CF3F31F0CE
:100AB000F80181918F0154D0C150D0F7CF911F918F
:100AC0000F9108959091BA008091BB00981741F062
:100AD0001AD046D09091BA008091BB009817C1F708
:100AE0000895F8942091B90084E792E0FC01E20FA8
:100AF000F11D9081822F8F5F8F718093B900789460
:100B0000892F99270895F8942091BB0084E992E0F9
:100B1000FC01E20FF11D9081822F8F5F8F73809314
:100B2000BB007894892F99270895382FF894209145
:100B3000BA0084E992E0FC01E20FF11D3083822FBC
:100B40008F5F8F738093BA007894089510BC82E110
:100B500089B988E98AB986E880BD82E08BB90895B1
:100B60005D9BFECF8CB908951F920F920FB60F9226
:100B700011242F938F939F93EF93FF932091B800AD
:100B800084E792E0FC01E20FF11D8CB180832F5FBE
:100B90002F712093B800209170008CE692E0FC0148
:100BA000E20FF11D81E08083280F277020937000F1
:100BB000FF91EF919F918F912F910F900FBE0F900A
:100BC0001F90189511B888E480B90895982F8091E6
:100BD00008018823E4F306B604FCFDCF90930301DB
:100BE0007093050160930401409307011092060180
:100BF0001092090185EA86BF809108018068809380
:100C000008010895982F809108018823E4F39093B8
:100C1000030170930501609304014093070181E093
:100C2000809306011092090185EA86BF8091080130
:100C3000806880930801089590E0809108018823DE
:100C40000CF491E0892F992708951F920F920FB607
:100C50000F9211248F939F93AF93BF93EF93FF93C2
:100C600081B1887F9927AA27BB27FC013897E135F6
:100C7000F10508F06DC0ED5EFF4F09948091090108
:100C8000833008F05DC080910301982F990F809107
:100C90000601890F83B986B78F7D4AC0109209017A
:100CA00011C0809109018F5F8093090186B7806B25
:100CB0003FC0809107018150809307018091070117
:100CC0008823F1F1E0910401F0910501808183B95D
:100CD000CF010196909305018093040109C0809192
:100CE0000701815080930701809107018823D9F47F
:100CF00086B780681DC0E0910401F091050183B1C1
:100D000080838091040190910501019690930501E3
:100D100080930401809107018150809307018091A5
:100D20000701882319F086B7806C02C086B78F7BD5
:100D300086BF0EC0E0910401F091050183B180836C
:100D400086B7806986BF809108018F7780930801FC
:100D5000FF91EF91BF91AF919F918F910F900FBE37
:100D60000F901F90189560E284E10ED060E489E353
:100D70000BD068E282E108D065E088E205D061E04E
:100D800083E102D006D00895282F362FC9012FD035
:100D90000895CF93DF93CDB7DEB722970FB6F894BF
:100DA000DEBF0FBECDBF90910A0180910B01981755
:100DB000A9F037D089839A8342E0BE016F5F7F4FED
:100DC00080E604DF84E690E03ED036DF8130E9F350
:100DD00090910A0180910B01981759F722960FB64E
:100DE000F894DEBF0FBECDBFDF91CF9108959C0177
:100DF00051E040910A01842F9927880F991FFC0127
:100E0000EC52FD4F20833183842F850F87708093B0
:100E10000A0190910B01891709F450E0852F992759
:100E2000089540910B01842F9927880F991FFC0189
:100E3000EC52FD4F20813181842F8F5F877080932A
:100E40000B01C9010895CF93DF93CDB7DEB7249787
:100E50000FB6F894DEBF0FBECDBF9C0119821A8277
:100E60001B821C8219821A8289819A8182179307B8
:100E7000E0F41B821C828B819C81885E934058F435
:100E800000008B819C8101968B839C838B819C814C
:100E9000885E9340A8F389819A81019689839A8319
:100EA00089819A818217930720F324960FB6F894CC
:100EB000DEBF0FBECDBFDF91CF9108951F938E9AF5
:100EC000969A84EF91E0BFDF1FEB82B3812382BB50
:100ED00084EF91E0B8DF969A84EF91E0B4DF82B3BB
:100EE000812382BB84EF91E0AEDF969A84EF91E09C
:100EF000AADF82B3812382BB84EF91E0A4DF969ABC
:100F00001F910895969A96988895E6F13EB53760B8
:100F10003EBD00E010E520E0B92FA82FF72FE62F07
:100F2000D72F39B7346039BF30E54FEF4DBD3CBDE9
:100F3000C62F3BB730683BBF969A889596983BB7CB
:100F40003F773BBF00000000E6B3C3B3CF703081F2
:100F5000E6B3488950A13423352376F03217A1F344
:100F6000969A00009698412F0CB5102F041B2D93D4
:100F70000D93232F0000E8CF0FEF011B03953D9346
:100F80000C9300C03EB5387F3EBD969A9698E89483
:100F90000895969A96988895AEF3B92FA82FD72FD3
:100FA000C62F30E54FEF4DBD3CBD3EB537603EBD71
:100FB000000039B7346039BF3BB730683BBF969A01
:100FC000889596983BB73F773BBF000033B346B355
:100FD0003D934993DEF7D6CF18951895309172005E
:100FE000316030937200689418951895FC01882739
:100FF0009927E89421912223E9F02032D9F329306E
:10100000C9F32A30B9F32C30A9F32D3099F32637E0
:1010100089F32B3219F02D3221F468942191222387
:1010200049F020333CF02A332CF420532FD0820F88
:10103000911DF4CF8115910521F01EF480959095B6
:1010400001960895E199FECF9FBB8EBBE09A992748
:101050008DB308954115510569F0DC01E199FECF8A
:101060007FBB6EBBE09A6F5F7F4F0DB20D92415018
:101070005040B1F70895E199FECF9FBB8EBB6DBB89
:101080000FB6F894E29AE19A0FBE08957AE0979F1E
:0E109000902D879F802D910D11240895FFCF84
:10109E0078000841565263616D2076312E340D0072
:00000001FF
