:100000000C9438000C9455000C9455000C94550039
:100010000C9455000C9455000C9455000C9455000C
:100020000C9455000C9455000C9455000C945500FC
:100030000C9455000C9455000C9455000C945500EC
:100040000C9455000C9455000C9455000C945500DC
:100050000C9455000C9455000C9455000C945500CC
:100060000C9455000C9455000C9455000C945500BC
:1000700011241FBECFEFD0E1DEBFCDBF11E0A0E065
:10008000B1E0E2EEFFE002C005900D92AA32B107A6
:10009000D9F711E0AAE2B1E001C01D92AF36B10775
:1000A000E1F70E9457000C94F0070C9400000F93A6
:1000B0001F93CF93DF93CDB7DEB7E2970FB6F894D7
:1000C000DEBF0FBECDBF0E94C60785E090E00E9454
:1000D000FB028E010F5F1F4F40E06AE0C8010E94E3
:1000E0001A0343E050E060E071E0C8010E94E207BB
:1000F000892B19F48D810E94A30743E050E064E04E
:1001000071E0C8010E94E207892B19F48D810E94D9
:10011000800743E050E068E071E0C8010E94E20718
:10012000892B19F48D810E945D0743E050E06CE05B
:1001300071E0C8010E94E207892B19F48D810E94A9
:100140003A0744E050E060E171E0C8010E94E20734
:10015000892B19F48D810E94170744E050E065E176
:1001600071E0C8010E94E207892B19F48D810E9479
:10017000F40644E050E06AE171E0C8010E94E20741
:10018000892B19F48D810E94D10644E050E06FE183
:1001900071E0C8010E94E207892B19F48D810E9449
:1001A000AE0644E050E064E271E0C8010E94E2075C
:1001B000892B09F08ECF0E9491068BCF10926C0193
:1001C00010926B01109267011092680110926E01FB
:1001D00010926A0110926D011092690108956623D0
:1001E000F1F06130B9F530916E01482F5527832F1A
:1001F0009927042E02C0959587950A94E2F780FD11
:1002000029C021B181E090E002C0880F991F4A9572
:10021000E2F7280F21B9380F30936E01089530911D
:100220006E01482F5527832F9927042E02C09595DC
:1002300087950A94E2F780FF0DC021B181E090E03C
:1002400002C0880F991F4A95E2F7281B21B9381B75
:1002500030936E0108956623F1F06130B9F5309165
:100260006A01482F5527832F9927042E02C09595A0
:1002700087950A94E2F780FD29C024B181E090E0DF
:1002800002C0880F991F4A95E2F7280F24B9380F4A
:1002900030936A01089530916A01482F5527832FC2
:1002A0009927042E02C0959587950A94E2F780FF5E
:1002B0000DC024B181E090E002C0880F991F4A95DB
:1002C000E2F7281B24B9381B30936A01089566238E
:1002D000F1F06130B9F530916D01482F5527832F2A
:1002E0009927042E02C0959587950A94E2F780FD20
:1002F00029C027B181E090E002C0880F991F4A957C
:10030000E2F7280F27B9380F30936D010895309127
:100310006D01482F5527832F9927042E02C09595EC
:1003200087950A94E2F780FF0DC027B181E090E045
:1003300002C0880F991F4A95E2F7281B27B9381B7E
:1003400030936D0108956623F1F06130B9F5309175
:100350006901482F5527832F9927042E02C09595B0
:1003600087950A94E2F780FD29C02AB181E090E0E8
:1003700002C0880F991F4A95E2F7280F2AB9380F53
:1003800030936901089530916901482F5527832FD3
:100390009927042E02C0959587950A94E2F780FF6D
:1003A0000DC02AB181E090E002C0880F991F4A95E4
:1003B000E2F7281B2AB9381B309369010895662398
:1003C000F1F06130B9F530916C01482F5527832F3A
:1003D0009927042E02C0959587950A94E2F780FD2F
:1003E00029C022B181E090E002C0880F991F4A9590
:1003F000E2F7280F22B9380F30936C01089530913D
:100400006C01482F5527832F9927042E02C09595FC
:1004100087950A94E2F780FF0DC022B181E090E059
:1004200002C0880F991F4A95E2F7281B22B9381B92
:1004300030936C0108956623F1F06130B9F5309185
:100440006B01482F5527832F9927042E02C09595BD
:1004500087950A94E2F780FD29C025B181E090E0FC
:1004600002C0880F991F4A95E2F7280F25B9380F67
:1004700030936B01089530916B01482F5527832FDE
:100480009927042E02C0959587950A94E2F780FF7C
:100490000DC025B181E090E002C0880F991F4A95F8
:1004A000E2F7281B25B9381B30936B0108956623AA
:1004B000F1F06130B9F530916701482F5527832F4E
:1004C0009927042E02C0959587950A94E2F780FD3E
:1004D00029C028B181E090E002C0880F991F4A9599
:1004E000E2F7280F28B9380F30936701089530914B
:1004F0006701482F5527832F9927042E02C0959511
:1005000087950A94E2F780FF0DC028B181E090E062
:1005100002C0880F991F4A95E2F7281B28B9381B9B
:100520003093670108956623F1F06130B9F5309199
:100530006801482F5527832F9927042E02C09595CF
:1005400087950A94E2F780FD29C02BB181E090E005
:1005500002C0880F991F4A95E2F7280F2BB9380F70
:1005600030936801089530916801482F5527832FF3
:100570009927042E02C0959587950A94E2F780FF8B
:100580000DC02BB181E090E002C0880F991F4A9501
:10059000E2F7281B2BB9381B30936801089520B16E
:1005A000332702C0359527958A95E2F7C9018170F6
:1005B0009070089523B1332702C0359527958A9509
:1005C000E2F7C90181709070089526B1332702C007
:1005D000359527958A95E2F7C90181709070089545
:1005E00029B1332702C0359527958A95E2F7C901CD
:1005F000817090700895292F33272093C500809330
:10060000C40088E98093C10086E08093C200089509
:10061000982F8091C00085FFFCCF9093C60008956D
:100620008091C00087FFFCCF8091C6008093340189
:10063000992708952F923F924F925F926F927F92E7
:100640008F929F92AF92BF92CF92DF92EF92FF92E2
:100650000F931F93CF93DF93CDB7DEB7C554D04030
:100660000FB6F894DEBF0FBECDBF9CAB8BAB6DABAE
:10067000142F3E010894611C711C69E271E0C301F2
:100680000E94DB07112321F0113009F0CFC1D4C043
:1006900010922C0110922D0110922E0110922F0118
:1006A00010923001109231011092320110923301F8
:1006B000A091340122243324442455246624772431
:1006C0008824992483C08091C00087FFFCCFA0912B
:1006D000C6008A2F9927FE013196E20DF31D808313
:1006E0008D3049F410822A2C3B2C4C2C5D2C6E2C26
:1006F0007F2C802E912E81E08EAB1FAA18AE19AEF2
:100700001AAE1BAE1CAE1DAE01E0020D021508F0C4
:1007100080E01FA9130DE1E0131508F0E0E0810F60
:1007200091E0811708F090E0E92B182F28AD240DF7
:10073000F1E0241508F0F0E08E2F820F91E082178F
:1007400008F090E0F92B282F39AD350DE1E0351593
:1007500008F0E0E08F2F830F91E0831708F090E01E
:10076000E92B382F4AAD460DF1E0461508F0F0E0D0
:100770008E2F840F91E0841708F090E0F92B482F1A
:100780005BAD570DE1E0571508F0E0E08F2F850FC6
:1007900091E0851708F090E0E92B582F6CAD680DBB
:1007A000F1E0681508F0F0E09E2F960F81E09617B3
:1007B00008F080E08F2B7DAD790D870F202E312E34
:1007C000422E532E642E752E892E982EADA8BB2452
:1007D000CC24DD24EE24FF2400E010E0911608F480
:1007E00072CF191509F010C1801608F46CCF0815E6
:1007F00009F00AC17F1408F466CFF71409F004C1A8
:100800006E1408F460CFE61409F0FEC05D1408F41D
:100810005ACFD51409F0F8C04C1408F454CFC414BE
:1008200009F0F2C03B1408F44ECFB31409F0ECC049
:100830002A1408F448CFE8C010922C0110922D0120
:1008400010922E0110922F0110923001109231015E
:10085000109232011092330150903401882499246F
:10086000AA24BB24CC24DD24EE24FF24D3018BC096
:100870008091C00087FFFCCF5090C6005C9281E061
:100880008EAF1FAE21961FAE219722961FAE2297E4
:1008900023961FAE239724961FAE249725961FAE4E
:1008A000259726961FAE269701E0080D081508F03B
:1008B00080E01FAD190DE1E0191508F0E0E0810FAF
:1008C00091E0811708F090E0E92B182F21962FADC9
:1008D00021972A0DF1E02A1508F0F0E08E2F820F03
:1008E00091E0821708F090E0F92B282F22963FAD77
:1008F00022973B0DE1E03B1508F0E0E08F2F830FDE
:1009000091E0831708F090E0E92B382F23964FAD44
:1009100023974C0DF1E04C1508F0F0E08E2F840F7A
:1009200091E0841708F090E0F92B482F24965FADF2
:1009300024975D0DE1E05D1508F0E0E08F2F850F55
:1009400091E0851708F090E0E92B582F25966FADC0
:1009500025976E0DF1E06E1508F0F0E09E2F960FD2
:1009600081E0961708F080E08F2B26967FAD2697C2
:100970007F0D870F802E912EA22EB32EC42ED52E42
:10098000E92EF82E11962DA930E040E050E060E00D
:1009900070E080E090E0F91608F46ACF9F1509F541
:1009A000E81608F465CF8E15E1F4D71608F460CF89
:1009B0007D15B9F4C61608F45BCF6C1591F4B51625
:1009C00008F456CF5B1569F4A41608F451CF4A1504
:1009D00041F4931608F44CCF391519F4821608F433
:1009E00047CF5092340180922C0190922D01A09219
:1009F0002E01B0922F01C0923001D0923101E092CD
:100A00003201F092330112C0A093340120922C01E4
:100A100030922D0140922E0150922F0160923001B0
:100A20007092310180923201909233018E010F5FFA
:100A30001F4FB8018BA99CA90E94DB07C801CB5BA3
:100A4000DF4F0FB6F894DEBF0FBECDBFDF91CF9161
:100A50001F910F91FF90EF90DF90CF90BF90AF90DC
:100A60009F908F907F906F905F904F903F902F90CE
:100A700008956F927F928F929F92AF92BF92CF9282
:100A8000DF92EF92FF920F931F93CF93DF93CDB737
:100A9000DEB728970FB6F894DEBF0FBECDBFDC01DE
:100AA00010922C0110922D0110922E0110922F0104
:100AB00010923001109231011092320110923301E4
:100AC00082C0FD01E80DF91DE0818091C00085FF25
:100AD000FCCFE093C60081E089831A821B821C82CE
:100AE0001D821E821F82188601E0080D081508F07D
:100AF00080E01A81190D91E0792E191508F07724FC
:100B0000810F91E0811708F090E0792A182F2B814E
:100B10002A0DF1E06F2E2A1508F06624872D820F2A
:100B200091E0821708F090E0692A282F3C813B0D64
:100B3000E1E07E2E3B1508F07724862D830F91E0AF
:100B4000831708F090E0792A382F4D814C0D71E021
:100B5000672E4C1508F06624872D840F91E08417CA
:100B600008F090E0692A482F5E815D0D61E0762EE5
:100B70005D1508F07724862D850F91E0851708F024
:100B800090E0792A582F6F816E0DF1E06E1508F014
:100B9000F0E0972D960F81E0961708F080E08F2BFC
:100BA00078857F0D870F00932C0110932D012093E2
:100BB0002E0130932F0140933001509331019093D7
:100BC00032018093330180902C0190902D01A090F0
:100BD0002E01B0902F01C0903001D0903101E090F3
:100BE0003201F0903301FD0101900020E9F73197C7
:100BF000EA1BFB0B9F0140E050E060E070E080E00A
:100C000090E0F91608F45DCF9F1509F5E81608F491
:100C100058CF8E15E1F4D71608F453CF7D15B9F4EB
:100C2000C61608F44ECF6C1591F4B51608F449CFEA
:100C30005B1569F4A41608F444CF4A1541F49316E1
:100C400008F43FCF391519F48E1608F43ACF2896D8
:100C50000FB6F894DEBF0FBECDBFDF91CF911F91CD
:100C60000F91FF90EF90DF90CF90BF90AF909F904B
:100C70008F907F906F90089581EA8093800089E043
:100C800080938100089582EA8093800089E08093B8
:100C90008100089583EA8093800089E08093810039
:100CA00008959093890080938800089590938B0015
:100CB00080938A00089580938800892F99278170F6
:100CC00080938900089580938A00892F99278170E5
:100CD00080938B00089580938800892F99278370D3
:100CE00080938900089580938800892F99278370C5
:100CF00080938B00089590938B0080938A000895D1
:100D00009093890080938800089581EA8093800001
:100D100089E080938100089580912A0190912B01B0
:100D2000089560E080E00E941B0260E081E00E9484
:100D30001B0260E082E00E941B0260E083E00E94F0
:100D40001B0280E090E00E94800680E090E00E941C
:100D50007B0610922B0110922A0108950F931F9386
:100D6000082F60E080E00E941B0261E081E00E94A9
:100D70001B0260E082E00E941B0260E083E00E94B0
:100D80001B021127C8010E948006C8010E947B0631
:100D900081E090E090932B0180932A011F910F91A5
:100DA00008950F931F93082F60E080E00E941B02BC
:100DB00060E081E00E941B0260E082E00E941B0272
:100DC00061E083E00E941B021127C8010E94800697
:100DD000C8010E947B0681E090E090932B018093F4
:100DE0002A011F910F9108950F931F93082F61E01F
:100DF00080E00E941B0260E081E00E941B0260E034
:100E000082E00E941B0261E083E00E941B02112726
:100E1000C8010E948006C8010E947B0681E090E024
:100E200090932B0180932A011F910F9108950F93A6
:100E30001F93082F60E080E00E941B0261E081E0C8
:100E40000E941B0261E082E00E941B0260E083E0DE
:100E50000E941B021127C8010E948006C8010E943F
:100E60007B0681E090E090932B0180932A011F91F3
:100E70000F9108950F931F93082F61E080E00E9467
:100E80001B0260E081E00E941B0260E082E00E94A1
:100E90001B0260E083E00E941B021127C8010E9430
:100EA0008006C8010E947B0681E090E090932B01B0
:100EB00080932A011F910F9108950F931F93082F7C
:100EC00060E080E00E941B0260E081E00E941B0263
:100ED00061E082E00E941B0260E083E00E941B024E
:100EE0001127C8010E948006C8010E947B0681E08C
:100EF00090E090932B0180932A011F910F91089508
:100F00000F931F93082F60E080E00E941B0261E0B6
:100F100081E00E941B0260E082E00E941B0261E00F
:100F200083E00E941B021127C8010E948006C801AD
:100F30000E947B0681E090E090932B0180932A0130
:100F40001F910F9108950F931F93082F61E080E088
:100F50000E941B0260E081E00E941B0261E082E0CF
:100F60000E941B0260E083E00E941B021127C8015F
:100F70000E948006C8010E947B0681E090E0909369
:100F80002B0180932A011F910F9108950E948506DD
:100F90000E94DE0061E080E00E942B0161E081E0C0
:100FA0000E942B0161E082E00E942B0161E083E05E
:100FB0000E942B010895FB01DC0101900D9200209D
:100FC000E1F70895FB01DC014150504030F08D9174
:100FD0000190801919F40020B9F7881B990B089526
:020FE000FFCF41
:100FE20066776400627764006C66740072676800FA
:100FF200736C6674007372676800626C6674006278
:0A1002007267680073746F700000DD
:00000001FF
