:1000000012C02BC02AC029C028C027C026C025C0C6
:1000100024C0A4C022C021C020C01FC01EC01DC05B
:100020001CC01BC01AC011241FBECFE5D4E0DEBF28
:10003000CDBF10E0A0E6B0E0E2E8F2E002C005903B
:100040000D92A036B107D9F710E0A0E6B0E001C0EC
:100050001D92AC36B107E1F72BC0D2CF0F931F939F
:10006000CF93CCE110E0012FCC3111F401E003C0BB
:10007000CA3409F400E0809B12C0112321F488B334
:100080008C5F88BB11E0013011F4CF5F03C0002307
:1000900009F4C1508C2F99274FD08099FECF8099B9
:1000A000E3CF113009F788B3845088BB10E0DCCF70
:1000B000CFE5D4E0DEBFCDBF41E060E081E792E074
:1000C0001AD011BA87B38C5F87BBC8DF80E090E09D
:1000D000D7C0880F991F0197F1F70895CF93DF9349
:1000E000009731F0EC0188EE93E0F3DF2197D9F728
:1000F000DF91CF910895909365008093640066230B
:1001000031F487B38E5F87BB60936A0003C082E0DF
:1001100080936A00442331F481B3805E81BB4093B5
:100120006B0003C082E080936B0081E083BF89B7DE
:100130008F5F89BF789408959093610080936000E9
:100140001092670010926600089590936300809368
:100150006200109269001092680008951F920F9239
:100160000FB60F9211242F933F934F935F938F936A
:100170009F9380916A00482F55274115510521F022
:1001800041305105B9F02AC02091660030916700D6
:10019000809164009091650028173907F9F481E097
:1001A00080936A0088B38E5F88BB5093670040934A
:1001B000660014C020916600309167008091600055
:1001C000909161002817390749F410926A0088B3AA
:1001D000825088BB109267001092660080916B007D
:1001E000482F55274115510521F041305105B9F0EF
:1001F0002AC020916800309169008091640090913C
:10020000650028173907F9F481E080936B0082B309
:10021000805E82BB509369004093680014C02091B7
:100220006800309169008091620090916300281706
:10023000390749F410926B0082B3805282BB10924E
:1002400069001092680080916600909167000196A5
:100250009093670080936600809168009091690098
:10026000019690936900809368009F918F915F91B0
:100270004F913F912F910F900FBE0F901F901895A7
:02028000FFCFAE
:00000001FF
