:1000000012C02BC02AC029C028C027C026C025C0C6
:1000100024C0B0C022C021C020C01FC01EC01DC04F
:100020001CC01BC01AC011241FBECFE5D4E0DEBF28
:10003000CDBF10E0A0E6B0E0EAE9F2E002C0059032
:100040000D92A036B107D9F710E0A0E6B0E001C0EC
:100050001D92AD36B107E1F74DC0D2CF9695879589
:10006000969587950197F1F708950F931F93CF9376
:10007000DF938C01C0E0D0E0C817D90738F488EED0
:1000800093E0ECDF2196C017D107C8F3DF91CF9141
:100090001F910F91089584E180936C0084E190E0BA
:1000A00057D084E190E05DD080916C008A3478F480
:1000B00099274ED080916C00992753D080916C0085
:1000C0008F5F80936C0082E390E0CFDFEDCF809173
:1000D0006C00843148F399273BD080916C009927BC
:1000E00040D080916C00815080936C0082E390E05E
:1000F000BCDFEDCFCFE5D4E0DEBFCDBF40E0642F65
:1001000081E792E004D0C7DF80E090E0C5C0909323
:10011000650080936400662331F484B38C5F84BBF4
:1001200060936A0003C082E080936A00442331F444
:1001300084B3885F84BB40936B0003C082E08093EC
:100140006B0081E083BF89B78F5F89BF7894089582
:100150009093610080936000109267001092660097
:10016000089590936300809362001092690010924A
:10017000680008951F920F920FB60F9211242F93CB
:100180003F934F935F938F939F9380916A00482F83
:1001900055274115510521F041305105B9F02AC0CC
:1001A0002091660030916700809164009091650015
:1001B00028173907F9F481E080936A0085B38C5FD2
:1001C00085BB509367004093660014C02091660081
:1001D0003091670080916000909161002817390785
:1001E00049F410926A0085B3845085BB1092670071
:1001F0001092660080916B00482F552741155105DC
:1002000021F041305105B9F02AC0209168003091A9
:100210006900809164009091650028173907F9F40E
:1002200081E080936B0085B3885F85BB5093690044
:100230004093680014C0209168003091690080915B
:100240006200909163002817390749F410926B00FF
:1002500085B3885085BB1092690010926800809128
:100260006600909167000196909367008093660006
:100270008091680090916900019690936900809345
:1002800068009F918F915F914F913F912F910F90B7
:0A0290000FBE0F901F901895FFCFCE
:00000001FF
