:1000000019C032C031C030C02FC02EC02DC02CC08E
:100010002BC02AC029C028C027C026C025C024C0A4
:1000200023C022C021C020C01FC01EC01DC01CC0D4
:100030001BC01AC011241FBECFEFD2E0DEBFCDBF60
:1000400011E0A0E0B1E0ECE7F3E002C005900D9212
:10005000A030B107D9F711E0A0E0B1E001C01D92D6
:10006000A030B107E1F701C0CBCFAF92BF92CF92E2
:10007000DF92EF92FF920F931F938FEF84B9A9D075
:1000800080E890E0A1D080E890E099D020E030E0D6
:10009000E0E3F5E7CF010197F1F72F5F3F4F81E0F4
:1000A000243F3807B9F70F2EF0E0AF2EF0E0BF2E57
:1000B000F0E0CF2EF3E4DF2EF02D17C020E030E08B
:1000C00040E85FE3C601B5018CD05B016C01CBD089
:1000D0007B018C01CB0178D0C70171D080E395E71B
:1000E000FC013197F1F70197F1F720E030E04FE79D
:1000F00053E4C601B501D2D08823C4F4DFCF20E099
:1001000030E040E85FE3C601B5016AD05B016C01F5
:10011000AAD07B018C01CB0157D0C70150D080E31E
:1001200095E7FC013197F1F70197F1F720E030E016
:1001300040E050E0C601B501B4D0181604F3D5CFA5
:1001400081EA8093800089E080938100089582EAAB
:100150008093800089E080938100089583EA8093F2
:10016000800089E0809381000895909389008093B6
:100170008800089590938B0080938A00089580935F
:100180008800892F99278170809389000895809332
:100190008A00892F9927817080938B00089580931E
:1001A0008800892F99278370809389000895809310
:1001B0008800892F9927837080938B0008959093EE
:1001C0008B0080938A000895909389008093880023
:1001D000089581EA8093800089E0809381000895EA
:1001E0005058192E9AD001D080C0BA1762077307F1
:1001F00084079507B1F188F40EF410940B2EBA2FF2
:10020000A02D062E622F202D072E732F302D082EA5
:10021000842F402D092E952F502DFF275523B9F0FF
:10022000591B49F0573E98F0469537952795A79565
:10023000F0405395C9F776F0BA0F621F731F841F01
:1002400030F4879577956795B795F040939517FAB1
:100250000F2E0895BF1BBB27BA0B620B730B840BC9
:10026000F6CFDEF686C097FB64D09F3738F0FEE904
:10027000F91B982F872F762F6B2F05C077C0969587
:10028000879577956795F150D0F73EF490958095D6
:10029000709561957F4F8F4F9F4F08950ED05EF000
:1002A00004C00BD026F001C008D019F020F48FEF65
:1002B000089580E0089581E0089597FB092E0526B2
:1002C00000F868942DD0E89407FC07C06217730704
:1002D0008407950721F008F40094079498940895F2
:1002E0009A95BB0F661F771F881F11249923A1F0D1
:1002F0008823B2F79F3F59F0BB0F48F421F4002048
:1003000011F460FF04C06F5F7F4F8F4F9F4F881FB6
:100310009795879597F9089529C0052E092607FA1C
:10032000440F551F5F3F79F0AA27A51708F051E049
:100330004795880F991F9F3F31F0BB27B91708F0E9
:1003400091E0879508959F919F91112414C097FB88
:10035000880F991F9F3F31F0BB27B91708F091E034
:10036000879508959F919F91112405C0662777274F
:0C0370008827992708959FEF80EC0895DE
:00000001FF
